:020000040000fa
:080000000002040000000000f2
:020000040000fa
:0400080026040000ca
:020000040000fa
:04000c0026040000c6
:020000040000fa
:0400100026040000c2
:020000040000fa
:0400140026040000be
:020000040000fa
:0400180026040000ba
:020000040000fa
:04001c0026040000b6
:020000040000fa
:0400200026040000b2
:020000040000fa
:0400240026040000ae
:020000040000fa
:0400280026040000aa
:020000040000fa
:04002c00fe020000d0
:020000040000fa
:0400300026040000a2
:020000040000fa
:04003400260400009e
:020000040000fa
:04003800260400009a
:020000040000fa
:04003c002604000096
:020000040000fa
:040040002604000092
:020000040000fa
:04004400260400008e
:020000040000fa
:04004800260400008a
:020000040000fa
:04004c002604000086
:020000040000fa
:040050002604000082
:020000040000fa
:04005400260400007e
:020000040000fa
:04005800260400007a
:020000040000fa
:04005c002604000076
:020000040000fa
:040060002604000072
:020000040000fa
:04006400460300004f
:020000040000fa
:04006800260400006a
:020000040000fa
:04006c002604000066
:020000040000fa
:040070002604000062
:020000040000fa
:04007400260400005e
:020000040000fa
:04007800640300001d
:020000040000fa
:04007c002604000056
:020000040000fa
:040080002604000052
:020000040000fa
:04008400260400004e
:020000040000fa
:04008800260400004a
:020000040000fa
:04008c002604000046
:020000040000fa
:040090002604000042
:020000040000fa
:04009400260400003e
:020000040000fa
:04009800260400003a
:020000040000fa
:04009c002604000036
:020000040000fa
:0400a0002604000032
:020000040000fa
:0400a400260400002e
:020000040000fa
:0400a800260400002a
:020000040000fa
:0400ac002604000026
:020000040000fa
:0400b0002604000022
:020000040000fa
:0400b400260400001e
:020000040000fa
:0400b800260400001a
:020000040000fa
:0400bc002604000016
:020000040000fa
:0400c0002604000012
:020000040000fa
:0400c400260400000e
:020000040000fa
:0400c800260400000a
:020000040000fa
:0400cc002604000006
:020000040000fa
:0400d0002604000002
:020000040000fa
:0400d40026040000fe
:020000040000fa
:0400d80026040000fa
:020000040000fa
:0400dc0026040000f6
:020000040000fa
:0400e00026040000f2
:020000040000fa
:0400e40026040000ee
:020000040000fa
:0400e80026040000ea
:020000040000fa
:0400ec0026040000e6
:020000040000fa
:0400f00026040000e2
:020000040000fa
:0400f40026040000de
:020000040000fa
:0400f80026040000da
:020000040000fa
:0400fc0026040000d6
:020000040000fa
:0401000026040000d1
:020000040000fa
:0401040026040000cd
:020000040000fa
:0401080026040000c9
:020000040000fa
:04010c0026040000c5
:020000040000fa
:0401100026040000c1
:020000040000fa
:0401140026040000bd
:020000040000fa
:0401180026040000b9
:020000040000fa
:04011c0026040000b5
:020000040000fa
:0401200026040000b1
:020000040000fa
:0401240026040000ad
:020000040000fa
:0401280026040000a9
:020000040000fa
:04012c0026040000a5
:020000040000fa
:0401300026040000a1
:020000040000fa
:04013400260400009d
:020000040000fa
:040138002604000099
:020000040000fa
:04013c002604000095
:020000040000fa
:040140002604000091
:020000040000fa
:04014400260400008d
:020000040000fa
:040148002604000089
:020000040000fa
:04014c002604000085
:020000040000fa
:040150002604000081
:020000040000fa
:04015400260400007d
:020000040000fa
:040158002604000079
:020000040000fa
:04015c002604000075
:020000040000fa
:040160002604000071
:020000040000fa
:04016400260400006d
:020000040000fa
:040168002604000069
:020000040000fa
:04016c002604000065
:020000040000fa
:040170002604000061
:020000040000fa
:04017400260400005d
:020000040000fa
:040178002604000059
:020000040000fa
:04017c002604000055
:020000040000fa
:040180002604000051
:020000040000fa
:04018400260400004d
:020000040000fa
:040188002604000049
:020000040000fa
:04018c002604000045
:020000040000fa
:040190002604000041
:020000040000fa
:04019400c60300009e
:020000040000fa
:040198002604000039
:020000040000fa
:04019c002604000035
:020000040000fa
:0401a000f603000062
:020000040000fa
:0401a400260400002d
:020000040000fa
:0401a8002604000029
:020000040000fa
:0401ac002604000025
:020000040000fa
:0401b0002604000021
:020000040000fa
:0401b400260400001d
:020000040000fa
:0401b8002604000019
:020000040000fa
:0401bc002604000015
:020000040000fa
:0401c0002604000011
:020000040000fa
:0401c400260400000d
:020000040000fa
:0401c8002604000009
:020000040000fa
:0401cc002604000005
:020000040000fa
:0401d0002604000001
:020000040000fa
:0401d40026040000fd
:020000040000fa
:0401d80026040000f9
:020000040000fa
:0401dc0026040000f5
:020000040000fa
:0401e00026040000f1
:020000040000fa
:0401e40026040000ed
:020000040000fa
:0401e80026040000e9
:020000040000fa
:0401ec0026040000e5
:020000040000fa
:0401f00026040000e1
:020000040000fa
:0401f40026040000dd
:020000040000fa
:0401f80026040000d9
:020000040000fa
:0401fc0026040000d5
:020000040000fa
:0402000026040000d0
:020000040000fa
:0402040026040000cc
:020000040000fa
:0402080026040000c8
:020000040000fa
:04020c0026040000c4
:020000040000fa
:0402100026040000c0
:020000040000fa
:0402140026040000bc
:020000040000fa
:0402180026040000b8
:020000040000fa
:04021c0026040000b4
:020000040000fa
:0402200026040000b0
:020000040000fa
:0402240026040000ac
:020000040000fa
:0402280026040000a8
:020000040000fa
:04022c0026040000a4
:020000040000fa
:0402300026040000a0
:020000040000fa
:04023400260400009c
:020000040000fa
:040238002604000098
:020000040000fa
:04023c002604000094
:020000040000fa
:040240002604000090
:020000040000fa
:04024400260400008c
:020000040000fa
:040248002604000088
:020000040000fa
:04024c002604000084
:020000040000fa
:040250002604000080
:020000040000fa
:04025400260400007c
:020000040000fa
:040258002604000078
:020000040000fa
:04025c002604000074
:020000040000fa
:040260002604000070
:020000040000fa
:040264008c03000007
:020000040000fa
:040268002604000068
:020000040000fa
:04026c002604000064
:020000040000fa
:040270002604000060
:020000040000fa
:04027400260400005c
:020000040000fa
:040278002604000058
:020000040000fa
:04027c002604000054
:020000040000fa
:040280002604000050
:020000040000fa
:04028400260400004c
:020000040000fa
:040288002604000048
:020000040000fa
:04028c002604000044
:020000040000fa
:040290002604000040
:020000040000fa
:04029400260400003c
:020000040000fa
:040298002604000038
:020000040000fa
:04029c002604000034
:020000040000fa
:0402a0002604000030
:020000040000fa
:0402a400260400002c
:020000040000fa
:0402a8002604000028
:020000040000fa
:0402ac002604000024
:020000040000fa
:0402b0002604000020
:020000040000fa
:0402b400260400001c
:020000040000fa
:0402b8002604000018
:020000040000fa
:0402bc002604000014
:020000040000fa
:0402c0002604000010
:020000040000fa
:0402c400260400000c
:020000040000fa
:0402c8002604000008
:020000040000fa
:0402cc002604000004
:020000040000fa
:0402d0002604000000
:020000040000fa
:0402d40026040000fc
:020000040000fa
:0402d80026040000f8
:020000040000fa
:0402dc0026040000f4
:020000040000fa
:0402e00026040000f0
:020000040000fa
:0402e40026040000ec
:020000040000fa
:0402e80026040000e8
:020000040000fa
:0402ec0026040000e4
:020000040000fa
:0402f00026040000e0
:020000040000fa
:0402f40026040000dc
:020000040000fa
:0402f80026040000d8
:020000040000fa
:0402fc0026040000d4
:020000040000fa
:0403000026040000cf
:020000040000fa
:0403040026040000cb
:020000040000fa
:0403080026040000c7
:020000040000fa
:04030c0026040000c3
:020000040000fa
:0403100026040000bf
:020000040000fa
:0403140026040000bb
:020000040000fa
:0403180026040000b7
:020000040000fa
:04031c0026040000b3
:020000040000fa
:0403200026040000af
:020000040000fa
:0403240026040000ab
:020000040000fa
:0403280026040000a7
:020000040000fa
:04032c0026040000a3
:020000040000fa
:10040000ef0a21000eff26000e0188000000000008
:10041000000020000000e000020032000001200087
:1004200020028800140007000a0107000000e00015
:1004300003003a0060312300010020000200370071
:100440000000200001002000810f70000100320038
:100450000f000700000020000000e0000200320052
:100460000000020000000000123102000000000045
:100470000040da000000fe00200d22000000e00035
:1004800002003200002020009001880000000600d9
:10049000a1028800800478000000eb001f003700f4
:1004a000e284440054a0b4009905ba00e2844400f8
:1004b00054a0b4009906ba00e284440054a0b400e9
:1004c0000006eb00476fde00fd07b200ae018800ba
:1004d000636ce10003003a000ad801000000eb0061
:1004e0000e003700606ce10008003a00004deb00a0
:1004f0000a05e800020039003420ec000af0a000f0
:100500008b05e900f9ff3e00040037006168e10057
:10051000010032000086eb000b00070019c7ba008b
:100520001905ba000e04e00003003a000a00e000da
:10053000dbff3a0000000600fe07b200ae028800b2
:100540008a047800f5ff37000cd0a300e20f4d00bd
:100550001c003b0089027800354dba000a05e8000e
:10056000020039003420ec000af0a0008b05e900fd
:100570000f003200254dba000a05e80002003900dc
:100580003420ec000af0a0008b05e90008003200de
:100590000c00e0000600320015cdba000a05e800a4
:1005a000020039003420ec000af0a0008b05e900bd
:1005b0008984e80054a0b4000b00e000e2ff3a0098
:1005c000000006009902ba00055d78008b05e9007d
:1005d000f7ff3200c82ade00055d78008b05e900d0
:1005e000f3ff32000c00e000f1ff320019ddba0029
:1005f000eeff3700a031040000000000809fbe0025
:100600000000fa000028a900508280000000e800e5
:1006100050828800708280000000e80070828800ac
:10062000608280000000e8006082880008cba8009b
:1006300002eca80050828000e20f500003003a0054
:100640004a30ef0010002000208288007082800075
:10065000e10f500003003a004e30ef001000200080
:10066000408288006182800000052000808f500059
:1006700003003a004c30ef00100020003082880068
:100680000080fa004f00be0000400600801f780086
:100690000000fa0010828000e10f500003003a00d1
:1006a000236ea9004230ef0003003700236ea8003c
:1006b000100020001082880001e8a9000080fa00e4
:1006c0004f007800004006003600f800809fbe0012
:1006d000829fbe00849fbe00869fbe000000fa007d
:1006e000064ea900007c220091002000c1170700df
:1006f000064ea800111607000288a9000080fa0023
:100700004f03be004f02be004f01be004f00be00af
:100710003600f90000400600801f78000000fa0053
:10072000007b8000640060000000e00001003a00ef
:100730000230ef00007b8000640060000000e000f9
:10074000020032001000200020808800007b800022
:10075000700060000000e000020032001000200085
:1007600030808800007b8000680060000000e000ae
:1007700002003200100020004080880011e8a9002b
:100780000080fa004f007800004006003600f800b4
:10079000809fbe00829fbe00849fbe00869fbe00d9
:1007a0000000fa0060608000b0818800b0818000a5
:1007b000cf80de00430007003233230033a523003f
:1007c00048010700d0818800e18188000b68a900fa
:1007d0000080fa004f03be004f02be004f01be0072
:1007e0004f00be003600f900004006003600f80059
:1007f000809fbe00829fbe00849fbe00869fbe0079
:100800000000fa0090608000c0818800c0818000f4
:10081000cf80de002b0007003233230033a52300f6
:1008200030010700f0818800018288000bc8a90010
:100830000080fa004f03be004f02be004f01be0011
:100840004f00be003600f900004006000040da000c
:100850000000fe00000005000001be001e000700b1
:100860000470a70003f0a10003f8a30013003a00ee
:100870006509b10010003200090035006928e10067
:1008800002003500010028000000050000004000c3
:10089000818048008502e900fcff3a000000060064
:1008a000f88f4200050035008100d1000080d300a0
:1008b0008502e800fcff3a00000006008000eb0023
:1008c000000005004f89de00820178000702370032
:1008d0006011b80015023700c70ade00f107b20048
:1008e000f50fb20008003200e1cf420002003200f2
:1008f0000170a00024000500810f7000010032008b
:100900000408050044000500810f700002003a0051
:10091000140005008502e9000000400081c0480085
:10092000fcff3b000170a0002400050007f8270031
:10093000078361000638e10004003a00f707200051
:10094000878361008703710001003a0003f0a20071
:10095000889fbe008a9fbe008c9fbe00470ade00b3
:100960000480a100c71ade000580a100070028004e
:100970000785600087856100f70f20000720e100f0
:100980009e0032000728e1009c003200010678003a
:100990000400e000b4003200f70720008780600008
:1009a0000170a0000500e000c0003200f707200041
:1009b000878161000370a000050652000f003a0015
:1009c0000b50e1000b0032000308e10002003a0086
:1009d0000200e1007e0032000204500083845800cf
:1009e000040031000001fd008101fd008402fd00d2
:1009f0008a05fd006044b800210037000520e100b1
:100a000005003d000001fd008101fd008402fd00a4
:100a10008a05fd00050652007a60e10005003500f8
:100a20000170a1004722dd00848070008a80700080
:100a3000630037006044b800ef02660007ff2f0034
:100a4000070666000500e00006003400f08312008f
:100a50008714dd000511de00071bdd0006017100b3
:100a60008519de007060e10005003500090478009a
:100a700082047800030178008001eb0070065600c4
:100a80000b50e10003003a00020040008380480060
:100a90000400370060041400e0841c0002005800c9
:100aa000838058000188a300060032008100d10035
:100ab0000080d3008984d3000884d3000402e800b6
:100ac000270037000178a30025003a000100e0006c
:100ad000030032008186cf00698656000a00370085
:100ae0008c0020000000e00004003a0009007800bb
:100af000880478000004eb00700252008086cf006a
:100b00000d0646000c06e9007060e10006003500a5
:100b10008000780009007800880478000004eb0069
:100b200070065600700252000c00e0000c00340009
:100b30008c08dd00f00316000703de0086807000dd
:100b40000c00dd00074bde00060070008c4cdd0061
:100b50000743de00868474000c44dd000c02520062
:100b60006120e100200035006101600007002800dd
:100b700087816400f7ff2700878364000703740000
:100b80000300e0000600320082037300040032001c
:100b90000000e800e08048000188a3000e003a0051
:100ba000f70f20000720e1004a003d000170a1007e
:100bb0004722dd00810072008a8070000000be00c4
:100bc0004f06be004f05be004f04be0000000600e9
:100bd0006000b800faff37008100d1000080d30028
:100be0000402e800eeff3700040178008901740078
:100bf000c20007008a807000f1ff3700180107006b
:100c0000070278000001fd008101fd0014010700ca
:100c100087027800850372000778a3000400320081
:100c20000001fd008101fd0027010700e4ff3700fe
:100c3000850362000768a300080032000b50e10042
:100c400003003200f0ff2f00f1ff2700dcff370028
:100c50000001fd008101fd00d9ff37000468a300f9
:100c6000d7ff3200faff3700f8ff270088836000c3
:100c70000b003a000000e00009003a008303640022
:100c800082837300020032000200be00ccff3700f6
:100c90000b50e100ceff3a000200be00c8ff370053
:100ca00014002000810064003eff3700f8ff270099
:100cb0008883610004003a000200e00002003a006c
:100cc0008c007800beff370015002000830164000f
:100cd00039ff370001f8270000002000810075006f
:100ce000b7ff37000383680007002800070363008d
:100cf000470ade000480a100c71ade000580a100bb
:100d0000f70f20000720e100420032000728e10031
:100d100040003200889fbe008a9fbe008c1f780072
:100d2000f107b200f307b2000400e00064003200f3
:100d30000170a0000500e000680032000370a00010
:100d400085054200eb07b1000204b8000302b800b9
:100d50008484440060854a00020ab8008484440008
:100d60000a854a00030ab800040545000400330060
:100d70000804d0008984d2000a85d2008b05e900de
:100d80006158e1003d0035000210200009016100ba
:100d90000308200089816100f70720008783640031
:100da00008867300c84cde00c853dd0087847400d9
:100db0004855de000300e0000600320082037600a2
:100dc000040032008904e80060054d000a88a30091
:100dd0000c003a00f70f20000758e10044003d00e6
:100de0000a70a100c75ddd000a8575008a007300e6
:100df000090078004f0678004f05be004f04be0082
:100e0000000006000a05d1008984d3008b05e800a4
:100e1000f0ff3700881f7800060478009000070074
:100e2000070278000001fd008101fd008c00070031
:100e300087027800850372000778a300050032005e
:100e40000001fd008101fd009f0007004f047800b4
:100e500000000600850372000748a300030032006b
:100e6000f0ff2f00f1ff2700f8ff370000002000ff
:100e700001f8270088807000f4ff370088017800af
:100e80004848dd00808171004848de00c850dd0020
:100e900001007000c850de00060478000b017800e5
:100ea0001600070088807000d2ff37000500e000c0
:100eb00005003200170020003a0007009dff3700b0
:100ec00081037000f9ff3a00860078004f06780031
:100ed0004f05be004f04be000000050083037100f3
:100ee000f9ff3200270020002e00070094ff370092
:100ef00001f8270086807000f4ff37000100e00051
:100f000026003200610111007810e10023003c004e
:100f10006022b8007010e100040035008002780003
:100f2000010078008000eb00700151000200e00039
:100f30000900340070031100062add00822ade0059
:100f40008603dd00878272000200de00860bdd0072
:100f5000070070008208de0084817100f4ff270022
:100f6000048262008481710004002800848262008f
:100f70006102600005f0a600000006000482710016
:100f8000070032000000e800e08048000000060092
:100f90000002be006000b800efff37006000b8003c
:100fa00000000600889fbe000004eb006138e100ed
:100fb00016003a000100e00008003a00c800de0018
:100fc0004800dd00880020000100e00003003a0036
:100fd000c800de004800dd00680444008184cf00c2
:100fe000e9845400060034008908dd00f083140011
:100ff0008703de00878070000900dd0009044400db
:10100000610214004f04be00000006000300e0006f
:1010100008003a00c811de004811dd0088002000f9
:101020000300e00003003a00c811de004811dd00b3
:10103000680444008384cf00e9845400060034002f
:101040008919dd00f08314008713de0087817100a9
:101050000911dd0009044400e1021400e9ff370032
:101060002700200001f0a70017002000470bde003a
:10107000f60fb200040032000643e8000a00320016
:101080004702b3000000060001037800f607b20033
:101090000603700002003a000703b30000000600d8
:1010a0008702b3000000060001037800f607b200d3
:1010b00006037000020032000770a0000000060066
:1010c0000760a000000006000478a30004003200be
:1010d0000578a300030032000168a30001003a0074
:1010e0000200be000160a00000000600881f78001a
:1010f000030478000300e00007003d0060001000da
:10110000e080180060011900e081190002003b0036
:1011100001f02d00030037000400070008f0a700cd
:1011200001f0a0004f04780000000600889fbe0078
:101130008a9fbe0000827000040271000482710068
:10114000260032000004be000200be006011b8009c
:101150006b092000950220000182cf000a003900af
:101160000541b1000082cf00070039000541b10000
:101170000982cf00040039000541b1000882cf0088
:10118000010039000541b100054252001200320051
:101190000a003b0082817100610164008100d1007e
:1011a0000080d3008984d3000884d3008b05e80035
:1011b0000442e800f7ff3a00070037000804440043
:1011c00089844c0000004800818048008b05e900bc
:1011d0000442e900f9ff3a00030007004f05be0092
:1011e0004f04be0000000600810020006180550011
:1011f0000b003d000b00200061fe2f000100e1000c
:101200001d00340082817100610164008904d100f5
:101210000884d3000000e800faff3a0071002000c3
:1012200061006400030070000200600009003200e9
:1012300061044400e0844c000988a50005003200e8
:101240008b05e8006808e10002003a008904d1003b
:101250000884d300f20f20000258e10005003d0091
:10126000c75ddd00f907b2008980750008007800cd
:10127000000006000bf827008b0078000000050036
:1012800080007800040037003104e00002003a00da
:101290000000510000000600010178000108a300d1
:1012a000f9ff3a008101780031017800f4ef2f0056
:1012b000020242000281ea000201620004082800e2
:1012c00004016100f7ff320083007800010178001b
:1012d0003104e000fdff3a0000005100000006006c
:020000040000fa
:1012e000415400002b520000535400000041000004
:1012f000542b0000435700004d4f000044450000b0
:101300003d30000000410000542b0000424c000022
:10131000454900004e490000543d000032000000e5
:10132000415400002b4200004c45000047410000a2
:101330005454000053530000525600004352000022
:1013400045000000415400002b4200004c450000c5
:10135000474100005454000053530000525600000f
:10136000535400004152000054000000415400005a
:101370002b4200004c450000414400004452000054
:101380003f000000415400002b4200004c4500008b
:10139000414400005644000041540000413d00001b
:1013a00022300000323000003130000036300000c2
:1013b0004130000039340000353700003337000079
:1013c0003037000032360000353700003337000078
:1013d000333600003936000036300000333000006c
:1013e0003330000032410000302200000041000094
:1013f000542b0000424c00004541000044560000c0
:1014000053540000415200005400000041540000b9
:101410002b4200004c45000047410000545400009e
:1014200053530000525600003f000000415400009a
:101430002b4200004c45000047410000545400007e
:101440005343000048410000523f000000380000b4
:1014500033000000415400002b4200004c450000c6
:101460004741000054540000534e00005446000011
:10147000593d0000302c0000312c0000362c0000bb
:1014800032000000c82e0000002e0000802e000058
:101490003db10000c82e0000002e0000802e00008c
:1014a00091030000802e0000bcb00000802e0000e0
:1014b000a3030000c82e0000002e0000802e0000b4
:1014c00000b0000050300000212e000059f500004f
:1014d00010300000212e00006af50000802e000070
:1014e0003b0300000000000000000000081900009d
:1014f0000100000022000000750000000010000044
:1015000000100000d1000000b3430000802e000056
:1015100000c10000802e000000c10000802e0000ed
:1015200000c10000802e000000c10000802e0000dd
:1015300000c10000802e000000c10000802e0000cd
:1015400000c10000802e000000c10000802e0000bd
:1015500000c10000802e000000c10000802e0000ad
:1015600000c10000802e000000c10000802e00009d
:1015700000c10000802e000000c10000802e00008d
:1015800000c10000802e000000c10000802e00007d
:1015900000c10000802e000000c10000802e00006d
:1015a00000c10000802e000000c10000802e00005d
:1015b00000c10000802e000000c10000802e00004d
:1015c00000c10000802e000000c10000802e00003d
:1015d00000c10000802e000000c10000802e00002d
:1015e00000c10000802e000000c10000802e00001d
:1015f00000c10000802e000000c10000802e00000d
:1016000000c10000802e000000c10000802e0000fc
:1016100000c10000802e000000c10000802e0000ec
:1016200000c10000802e000000c10000802e0000dc
:1016300000c10000802e000000c10000802e0000cc
:1016400000c10000802e000000c10000802e0000bc
:1016500000c10000802e000000c10000e05f00001b
:101660000000000000000000010000000000000079
:10167000000000000000000000000000000000006a
:1016800092000000000000000000000000000000c8
:10169000000000000000000000000000000000004a
:1016a0000000000008190000000000008800000091
:1016b00000000000000000000000000005e0000045
:1016c000aa38000005e0000090300000fa00000099
:1016d000960000004b0900001100000011000000fe
:1016e000020000002d010000d47b00003b0100003f
:1016f000db7a0000040000003f7b0000cd6c00009e
:10170000c304000085090000c3040000ece60000eb
:101710000c46000001000000270000001900000036
:1017200096000000a0000000010000000c00000076
:10173000f03c000000010000010000000300000078
:10174000010000000e000000000000003200000058
:1017500005000000ee06000004000000c8000000c4
:101760000000000004000000a8050000ee060000d4
:1017700000040000bc020000b30000008507000068
:101780000000000000000000000000000000000059
:101790000000000000000000000000000000000049
:1017a0000000000000000000b40000000100000084
:1017b000b9000000010000009800000000000000d7
:1017c0000000000000000000000000000100000018
:1017d0008000000004000000000000000000000085
:1017e00000000000000000000000000000000000f9
:1017f00000000000000000000000000000000000e9
:1018000000000000000000000000000000000000d8
:1018100000000000000000000000000000000000c8
:1018200000000000000000000000000000000000b8
:1018300000000000000000000000000000000000a8
:101840000000000000000000000000000000000098
:101850000000000000000000000000000000000088
:101860000000000000000000000000000000000078
:101870000000000000000000802e000000c10000f9
:10188000fd2d0000de000000eb000000da0000008b
:10189000000c0000ff0f000000040000c00000006a
:1018a0005bf50000c90100001ef20000800000008e
:1018b0003fff000019f4000058f5000066f5000035
:1018c00064f50000c0f10000f0000000e00000003e
:1018d000cd010000d3010000db010000ff7f00000c
:1018e000ff010000e400000074f70000f3000000b6
:1018f000fa000000ff3f0000ca0300006c3800003f
:1019000056fe000044fd0000bc020000f906000085
:1019100000fc000012020000ae01000058fa0000b6
:101920009afd000077050000bb0200009601000050
:10193000950100007f010000820100008901000084
:1019400087010000880100008a0100008c0100006e
:101950008f0100008d010000920100009101000044
:10196000dd0000009f0100007e010000db000000a0
:10197000b60100007069000026d300009c0700003b
:101980001f0500009d00000000080000bc050000cd
:1019900037fa0000a2010000aa010000a101000026
:1019a000a8010000a0010000a8050000b40100008b
:1019b000b4010000ce000000d0000000fc000000d8
:1019c000c5010000fffb0000b1000000003800006e
:1019d00000300000fdf50000fcf50000cd01000026
:1019e000a00000005fff000000400000ff000000ba
:1019f000008000006d0f0000eb0000007fff000082
:101a0000c2f5000068f70000b3f10000670f0000a6
:101a10005b0f0000610f0000800f000058f700000e
:101a20005bf70000830f000086000000720f0000cb
:101a3000850f0000c6f100007f0f00006cf700006a
:101a400000e0000000ff0000d1f50000870f00005b
:101a50008a0f0000ff030000f03f00008b00000031
:101a60008e00000090000000b90000002df500007d
:101a7000caf50000cb01000020f2000000000000c9
:101a80000000000000000000000000000000000056
:101a90000000000000000000000000000000000046
:101aa0000000000000000000000000000000000036
:101ab0000000000000000000000000000000000026
:101ac0000000000000000000000000000000000016
:101ad0000000000000000000000000000000000006
:101ae00000000000000000000000000000000000f6
:101af00000000000000000000000000000000000e6
:101b000000000000000000000000000000000000d5
:101b100000000000000000000000000000000000c5
:101b200000000000000000000000000000000000b5
:101b300000000000000000000000000000000000a5
:101b40000000000000000000000000000000000095
:101b50000000000000000000000000000000000085
:101b60000000000000000000000000000000000075
:101b70000000000000000000000000000000000065
:101b80000000000000000000000000000000000055
:101b90000000000000000000000000000000000045
:101ba0000000000000000000000000000000000035
:101bb0000000000000000000000000000000000025
:101bc0000000000000000000000000000000000015
:101bd0000000000000000000000000000000000005
:101be00000000000000000000000000000000000f5
:101bf00000000000000000000000000000000000e5
:101c000000000000000000000000000000000000d4
:101c100000000000000000000000000000000000c4
:101c200000000000000000000000000000000000b4
:101c30000000000030500000982e0000d70e000079
:101c400050320000982e0000fa030000003000001f
:101c5000f07f0000002e0000002e0000d02e0000bb
:101c6000002e00000180000008a20000fb2f0000f1
:101c7000982e0000ba030000212e00001900000079
:101c8000012e0000ee00000000b20000072f00004f
:101c9000012e00001900000000b20000032f000018
:101ca0000150000003520000982e000007cc0000f5
:101cb000012e0000dd00000000b20000272f000010
:101cc000052e00008a00000005520000982e00003a
:101cd000c7c10000032e0000e900000040b2000070
:101ce000f07f0000082f0000012e00001900000006
:101cf00000b20000042f000000300000212e000080
:101d0000e9000000982e0000b4b10000012e000090
:101d10001800000000b20000102f00000550000065
:101d2000982e00004dc3000005500000982e0000c2
:101d30005ac70000982e0000f9b40000982e000049
:101d400054b20000982e000067b60000982e0000e4
:101d500017b2000010300000212e000077000000b4
:101d6000012e0000ef00000000b20000042f000070
:101d7000982e00007ab7000000300000212e0000ed
:101d8000ef000000012e0000d400000004ae0000af
:101d90000b2f0000012e0000dd00000000b200004b
:101da000072f000005520000982e00008e0e000044
:101db00000b20000022f000010300000212e0000b1
:101dc0007d000000012e00007d000000009000005a
:101dd000902e0000f1020000012e0000d70000004c
:101de00000b20000042f0000982e00002f0e00000b
:101df00000300000212e00007b000000012e0000ba
:101e00007b00000000b20000122f0000012e000035
:101e1000d400000000900000022f0000982e000067
:101e20001f0e0000092d0000982e0000810d0000fb
:101e3000012e0000d400000004900000022f0000da
:101e400050320000982e0000fa030000003000001d
:101e5000212e00007b000000012e00007c0000000d
:101e600000b20000902e000009030000012e0000c7
:101e70007c000000013100000108000000b20000f9
:101e8000042f0000982e000047cb00001030000007
:101e9000212e00007700000081300000012e00009c
:101ea0007c0000000108000000b20000612f00006b
:101eb000032e000089000000012e0000d400000065
:101ec00098bc000098b8000005b200000f58000050
:101ed000232f00000790000009540000003000008c
:101ee000372f00001541000004410000dcbe000057
:101ef00044be0000dcba00002c01000061000000bc
:101f00000f5600004a0f00000c2f0000d1420000c5
:101f100094b80000c142000011300000052e0000fe
:101f20006af700002cbd00002fb9000080b200004d
:101f300008220000982e0000c3b70000212d0000e9
:101f400061300000232e0000d4000000982e000015
:101f5000c3b7000000300000212e00005af5000039
:101f6000182d0000e17f000050300000982e000086
:101f7000fa0300000f52000007500000504200001a
:101f8000703000000d540000424200007e820000cc
:101f9000e26f000080b2000042420000052f000006
:101fa000212e0000d400000010300000982e000008
:101fb000c3b70000032d000060300000212e000098
:101fc000d4000000012e0000d400000006900000a4
:101fd000182f0000012e0000760000000b540000b6
:101fe00007520000e07f0000982e00007ac1000038
:101ff000e16f0000081a000040300000082f0000c8
:10200000212e0000d400000020300000982e000097
:10201000afb7000050320000982e0000fa03000015
:10202000052d0000982e0000380e00000030000042
:10203000212e0000d400000000300000212e0000fe
:102040007c000000182d0000012e0000d4000000cc
:1020500003aa0000012f0000982e0000450e00008a
:10206000012e0000d40000003f80000003a2000009
:10207000012f0000002e0000022d0000982e00000d
:102080005b0e000030300000982e0000ceb700003c
:1020900000300000212e00007d00000050320000c2
:1020a000982e0000fa030000012e000077000000c7
:1020b00000b20000242f0000982e0000f5cb000095
:1020c000032e0000d500000011540000010a00009a
:1020d000bc84000083860000212e0000c90100009e
:1020e000e040000013520000c440000082400000a5
:1020f000a8b900005242000043be00005342000055
:10210000040a000050420000e17f0000f0310000ae
:1021100041400000f26f000025bd000008080000eb
:10212000020a0000d07f0000982e0000a8cf000017
:1021300006bc0000d16f0000e26f0000080a00003a
:1021400080420000982e000058b7000000300000c8
:10215000212e0000ee000000212e0000770000007c
:10216000212e0000dd000000802e0000f4010000a0
:102170001a24000022000000802e0000ec01000064
:1021800010500000fb7f0000982e0000f3030000b9
:1021900057500000fb6f0000013000007154000038
:1021a00011420000420e0000fc2f0000c02e000073
:1021b00001420000f05f0000802e000000c100001e
:1021c000fd2d0000010000000000000000000000e4
:1021d0000000000000000000000000009a01000064
:1021e00034030000000000000000000000000000b8
:1021f00000000000000000000000000000000000df
:1022000000000000000000000000000000000000ce
:1022100000000000000000000000000000000000be
:1022200000000000000000000000000000000000ae
:10223000000000000000000000000000000000009e
:10224000000000000000000000000000000000008e
:10225000000000000000000000000000000000007e
:10226000000000000000000000000000000000006e
:10227000000000000000000000000000000000005e
:10228000000000000000000000000000000000004e
:10229000000000000000000000000000000000003e
:1022a000000000000000000000000000000000002e
:1022b000000000000000000000000000000000001e
:1022c000000000000000000020500000e77f000038
:1022d000f67f0000063200000f2e000061f50000be
:1022e000fe090000c0b30000042f000017300000fa
:1022f0002f2e0000ef0000002d2e000061f50000e1
:10230000f66f0000e76f0000e05f0000c82e0000dd
:1023100020500000e77f0000f67f000046300000fc
:102320000f2e0000a4f10000be09000080b30000e1
:10233000062f00000d2e0000d400000084af000026
:10234000022f0000163000002d2e00007b00000040
:10235000863000002d2e000060f50000f66f0000b2
:10236000e76f0000e05f0000c82e0000012e0000b3
:1023700077f7000009bc00000fb8000000b20000b1
:1023800010500000fb7f0000103000000b2f0000f9
:10239000032e00008a00000096bc00009fb80000d9
:1023a00040b20000052f0000032e000068f7000077
:1023b0009ebc00009fb8000040b20000072f000044
:1023c000032e00007e00000041900000012f00005d
:1023d000982e0000dc030000032c000000300000f9
:1023e000212e00007e000000fb6f0000f05f000067
:1023f000b82e000020500000e07f0000fb7f0000ae
:10240000002e000027500000982e00003bc800005e
:1024100029500000982e0000a7c8000001500000bd
:10242000982e000055cc0000e16f00002b500000fa
:10243000982e0000e0c90000fb6f00000030000093
:10244000e05f0000212e00007e000000b82e00009a
:10245000735000000130000057540000114200008a
:10246000420e0000fc2f0000b82e0000212e0000bc
:1024700059f5000010300000c02e0000212e000091
:102480004af1000090500000f77f0000e67f000056
:10249000d57f0000c47f0000b37f0000a17f000053
:1024a000907f0000827f00007b7f0000982e00005c
:1024b00035b7000000b20000902e000097b0000079
:1024c000032e00008f000000072e00009100000086
:1024d000052e0000b10000003fba00009fb80000c8
:1024e000012e0000b1000000a3bd00004c0a000056
:1024f000052e0000b100000004be0000bfb90000be
:10250000cb0a00004fba000022bd0000012e0000df
:10251000b3000000dc0a00002fb90000032e000009
:10252000b80000000abe00009a0a0000cfb90000ff
:102530009bbc0000012e0000970000009fb8000027
:10254000930a00000fbc0000910a00000fb80000c1
:10255000900a0000252e000018000000052e000043
:10256000c1f500002ebd00002eb90000012e0000b4
:1025700019000000313000008a04000000900000c3
:10258000072f0000012e0000d400000004a200006c
:10259000032f0000012e00001800000000b2000010
:1025a0000c2f00001950000005520000982e00006a
:1025b0004db70000052e000078000000809000005c
:1025c00010300000012f0000212e000078000000d4
:1025d000252e0000dd000000982e00003eb7000010
:1025e00000b200000230000001300000042f0000a3
:1025f000012e00001900000000b20000002f0000b2
:1026000021300000012e0000ea000000081a00003e
:102610000e2f0000232e0000ea00000033300000df
:102620001b5000000b09000001400000175600007d
:1026300046be00004b0800004c0a000001420000aa
:102640000a8000001552000001420000002e000028
:10265000012e00001800000000b200001f2f000033
:10266000032e0000c0f50000f03000004808000014
:1026700047aa000074300000072e00007a00000016
:10268000612200004b1a0000052f0000072e0000f9
:1026900066f50000bfbd0000bfb90000c09000009b
:1026a0000b2f00001d5600002b300000d24200000e
:1026b000db42000001040000c242000004bd000033
:1026c000fe80000081840000232e00007a000000bc
:1026d0000242000002320000252e000062f50000d8
:1026e000052e0000d600000081840000252e000089
:1026f000d600000002310000252e000060f5000029
:10270000052e00008a0000000b5000009008000019
:1027100080b200000b2f0000052e0000caf500005b
:10272000f03e000090080000252e0000caf50000d1
:10273000052e000059f50000e03f00009008000061
:10274000252e000059f50000906f0000a16f0000d9
:10275000b36f0000c46f0000d56f0000e66f00008b
:10276000f76f00007b6f0000826f0000705f000059
:10277000c82e0000c0500000907f0000e57f0000e0
:10278000d47f0000c37f0000b17f0000a27f000063
:10279000877f0000f67f00007b7f0000002e000096
:1027a000012e000060f50000607f0000982e000000
:1027b00035b7000002300000636f000015520000c2
:1027c000507f0000627f00005a2c0000023200009f
:1027d0001a09000000b30000142f000000b200002e
:1027e000032f0000092e00001800000000910000d7
:1027f0000c2f0000437f0000982e000097b70000c8
:102800001f500000028a0000023200000430000065
:10281000252e000064f5000015520000506f0000e6
:10282000436f000044430000252e000060f50000c7
:10283000d9080000c0b20000362f0000982e00001a
:102840003eb7000000b20000062f0000012e00007d
:102850001900000000b20000022f0000506f0000bd
:10286000009000000a2f0000012e000079000000f7
:1028700000900000192f000010300000212e0000f1
:102880007900000000300000982e0000dc030000fa
:10289000132d0000012e0000c3f500000cbc000049
:1028a0000fb80000123000001004000003b0000058
:1028b000262500002150000003520000982e000041
:1028c0004db7000010300000212e0000ee00000087
:1028d00002300000607f0000252e0000790000001b
:1028e000606f000000900000052f00000030000025
:1028f000212e0000ea00000015500000212e0000eb
:1029000064f5000015520000232e000060f5000061
:1029100002320000506f000000900000022f000003
:1029200003300000272e000078000000072e000072
:1029300060f500001a09000000910000a32f0000bc
:102940001909000000910000a02f0000906f000006
:10295000a26f0000b16f0000c36f0000d46f0000d1
:10296000e56f00007b6f0000f66f0000876f0000ce
:10297000405f0000c82e0000c0500000e77f00004c
:10298000f67f0000263000000f2e000061f50000e9
:102990002f2e00007c0000000f2e00007c000000a5
:1029a000be090000a27f0000807f000080b300000d
:1029b000d57f0000c47f0000b37f0000917f00003e
:1029c0007b7f00000b2f0000235000001a25000021
:1029d00012400000427f000074820000124000009c
:1029e000527f0000002e000000400000607f0000c9
:1029f000982e00006ad6000081300000012e0000f1
:102a00007c0000000108000000b20000422f00001e
:102a1000032e000089000000012e00008900000044
:102a200097bc000006bc00009fb800000fb8000073
:102a300000900000232e0000d8000000103000009d
:102a4000013000002a2f0000032e0000d4000000f7
:102a500044b20000052f000047b200000030000023
:102a60002d2f0000212e00007c0000002b2d0000e7
:102a7000032e0000fdf500009ebc00009fb8000082
:102a800040900000142f0000032e0000fcf5000011
:102a900099bc00009fb80000409000000e2f00007d
:102aa000032e000049f10000255400004a080000f0
:102ab00040900000082f0000982e000035b700005d
:102ac00000b2000010300000032f00005030000062
:102ad000212e0000d4000000102d0000982e0000d0
:102ae000afb7000000300000212e00007c00000085
:102af0000a2d0000052e000069f700002dbd000022
:102b00002fb9000080b20000012f0000212e00002c
:102b10007d000000232e00007c000000e03100005a
:102b2000212e000061f50000f66f0000e76f000045
:102b3000806f0000a26f0000b36f0000c46f000040
:102b4000d56f00007b6f0000916f0000405f0000b8
:102b5000c82e0000605100000a25000036880000e1
:102b6000f47f0000eb7f00000032000031520000d3
:102b70003230000013300000982e000015cb00000a
:102b80000a25000033840000d27f0000433000009b
:102b9000055000002d520000982e000095c1000045
:102ba000d26f000027520000982e0000d7c7000007
:102bb0002a250000b0860000c07f0000d37f0000ff
:102bc000af84000029500000f16f0000982e000033
:102bd0004dc800002a250000ae8a0000aa88000027
:102be000f26e00002b500000c16f0000d36f000098
:102bf000f47f0000982e0000b6c80000e06e0000d0
:102c000000b20000322f0000335400008386000021
:102c1000f16f0000c37f000004300000303000007e
:102c2000f47f0000d07f0000b27f0000e33000009e
:102c3000c56f000056400000454100002808000014
:102c4000031400000eb4000008bc00008240000025
:102c5000100a00002f54000026050000917f00009c
:102c600044280000a37f0000982e0000d9c0000077
:102c700008b900003330000053090000c16f0000a4
:102c8000d36f0000f46f000083170000474000007e
:102c90006c150000b26f0000be090000750b00004b
:102ca0009042000045420000510e000032bc00007e
:102cb00002890000a16f00007e860000f47f000002
:102cc000d07f0000b27f000004300000916f000050
:102cd000d62f0000eb6f0000a05e0000b82e0000b1
:102ce000032e0000970000001bbc00006050000095
:102cf0009fbc00000cb80000f07f000040b2000054
:102d0000eb7f00002b2f0000032e00007f0000004f
:102d100041400000012e0000c8000000011a000020
:102d2000112f000037580000232e0000c8000000bb
:102d300010410000a07f0000388100000141000028
:102d4000d07f0000b17f0000982e000064cf00000b
:102d5000d06f000007800000a16f0000114200004a
:102d6000002e0000b16f0000014200001130000091
:102d7000012e0000fc00000000a80000033000004d
:102d8000cb2200004a250000012e00007f00000039
:102d90003c8900003552000005540000982e0000c8
:102da000c4ce0000c16f0000f06f0000982e00003c
:102db00095cf0000042d000001300000f06f0000ee
:102dc000982e000095cf0000eb6f0000a05f000080
:102dd000b82e0000032e0000b300000002320000f5
:102de000f030000003310000305000008a0800007d
:102df00008080000cb080000e07f000080b200005f
:102e0000f37f0000db7f0000252f0000032e000071
:102e1000ca00000041900000042f000001300000b3
:102e2000232e0000ca000000982e00003f0300007f
:102e3000c0b20000052f0000032e0000da000000e1
:102e40000030000041040000232e0000da000000e2
:102e5000982e000092b2000010250000f06f0000d4
:102e600000b20000052f0000012e0000da00000073
:102e70000230000010040000212e0000da000000e3
:102e800040b20000012f0000232e0000c801000006
:102e9000db6f0000e06f0000d05f0000802e0000bc
:102ea00095cf000001300000e06f0000982e000078
:102eb00095cf000011300000232e0000ca00000052
:102ec000db6f0000d05f0000b82e0000d050000083
:102ed0000a2500003384000055500000d27f000016
:102ee000e27f0000038c0000c07f0000bb7f000079
:102ef00000300000055a0000395400005141000024
:102f0000a57f0000967f0000807f0000982e0000c3
:102f1000d9c0000005300000f57f0000202500002a
:102f2000916f00003b5800003d5c00003b560000e4
:102f3000982e000067cc0000c16f0000d56f000024
:102f40005240000050430000c17f0000d57f0000c8
:102f500010250000982e0000fec90000102500007a
:102f6000982e000074c00000866f0000302800001a
:102f7000926f0000828c0000a56f00006f5200006d
:102f8000690e000039540000db2f000019a000007a
:102f900015300000032f000000300000212e00003b
:102fa000810100000a2d0000012e000081010000b7
:102fb0000528000042360000212e0000810100009b
:102fc000020e0000012f0000982e0000f303000005
:102fd000575000001230000001400000982e000001
:102fe000fec90000516f00000b5c00008e0e000057
:102ff0003b6f00005758000002300000212e0000f7
:1030000095010000456f00002a8d0000d27f00006e
:10301000cb7f0000132f0000023000003f50000063
:10302000d27f0000a80e00000e2f0000c06f00002d
:10303000535400000200000051540000420e0000f2
:10304000103000005952000002300000012f000033
:10305000002e0000032d00005042000042420000fc
:1030600012300000d27f000080b20000032f000069
:1030700000300000212e000080010000122d000011
:10308000012e0000c900000002800000052e000093
:103090008001000011300000912800000040000075
:1030a000252e000080010000100e0000052f0000fa
:1030b000012e00007f01000001900000012f0000a0
:1030c000982e0000f3030000002e0000a041000035
:1030d00001900000a67f0000902e0000e3b40000e5
:1030e000012e00009501000000a80000902e0000b5
:1030f000e3b400005b5400009580000082400000b3
:1031000080b20000024000002d8c00003f52000001
:10311000967f0000902e0000c2b30000290e000030
:10312000762f0000012e0000c900000000400000c2
:103130008128000045520000b3300000982e0000a6
:103140000fca00005d540000807f0000002e0000c8
:10315000a1400000727f00008280000082400000d9
:10316000607f0000982e0000fec9000010250000be
:10317000982e000074c00000626f0000053000004f
:1031800087400000c091000004300000052f0000bf
:10319000052e00008301000080b200001430000002
:1031a000002f000004300000052e0000c9000000c0
:1031b000736f000081400000e240000069040000dd
:1031c000110f0000e140000016300000fe29000051
:1031d000cb400000022f0000836f0000830f00002f
:1031e000222f000047560000130f0000123000008d
:1031f000772f000049540000420e000012300000fa
:10320000732f0000009100000a2f0000012e000023
:103210008b01000019a80000023000006c2f000094
:1032200063500000002e000017420000054200001d
:10323000682c0000123000000b250000080f000071
:1032400050300000022f0000212e000083010000fa
:10325000032d000040300000212e000083010000fb
:103260002b2e0000850100005a2c000012300000b7
:10327000009100002b250000042f00006350000087
:103280000230000017420000172c0000024200002c
:10329000982e0000fec9000010250000982e0000a6
:1032a00074c00000052e0000c900000081840000e9
:1032b0005b30000082400000372e000083010000d8
:1032c000020e0000072f00005f5200004030000097
:1032d0006240000041400000910e0000012f0000fc
:1032e000212e000083010000053000002b2e00007d
:1032f0008501000012300000362c0000163000005e
:1033000015250000817f0000982e0000fec90000f6
:1033100010250000982e000074c0000019a20000c3
:1033200016300000152f0000052e00009701000048
:10333000806f0000820e0000052f0000012e0000ab
:103340008601000006280000212e000086010000f2
:103350000b2d0000032e0000870100005f540000c9
:103360004e28000091420000002e00008240000024
:10337000900e0000012f0000212e000088010000a7
:1033800002300000132c000005300000c06f000068
:10339000081c0000a80f00001630000005300000d7
:1033a0005b500000092f0000028000002d2e00005d
:1033b000820100000542000005800000002e000090
:1033c000024200003e800000002e00000642000085
:1033d00002300000906f00003e88000001400000b5
:1033e000044100004c28000001420000078000005a
:1033f00010250000244000000040000000a800004c
:10340000f522000023290000444200007a820000d7
:103410007e880000434000000441000000ab000033
:10342000f5230000df28000043420000d9a000007f
:10343000142f000000900000022f0000d26f000047
:1034400081b20000052f0000635400000628000030
:103450009042000085420000092c0000023000006c
:103460005b50000003800000292e00007e01000058
:103470002b2e0000820100000542000012300000e7
:103480002b2e00008301000045820000002e00006a
:10349000404000007a82000002a00000082f0000d7
:1034a000635000003b300000154200000542000060
:1034b00037800000372e00007e010000054200002a
:1034c00012300000012e0000c9000000028c000034
:1034d00040400000844100007a8c0000040f00008e
:1034e000032f0000012e00008b01000019a4000032
:1034f000042f00002b2e000082010000982e0000f7
:10350000f3030000123000008190000061520000bf
:10351000082f000065420000654200004380000063
:103520003984000082880000054200004542000006
:103530008542000005430000002e0000804100008d
:1035400000900000902e0000e1b4000065540000df
:10355000c16f00008040000000b20000435800002e
:1035600069500000442f0000555c0000b787000040
:103570008c0f00000d2e000096010000c4400000da
:10358000362f0000415600008b0e00002a2f00004d
:103590000b520000a10e00000a2f0000052e0000b3
:1035a0008f01000014250000982e0000fec90000c5
:1035b0004b540000020f000069500000053000006d
:1035c00065540000152f0000032e00008e0100003e
:1035d0004d5c00008e0f00003a2f0000052e000009
:1035e0008f010000982e0000fec900004f5400001b
:1035f000820f000005300000695000006554000093
:10360000302f00006d52000015300000428c000089
:1036100045420000043000002b2c000084430000d1
:103620006b520000428c0000002e00008543000019
:1036300015300000242c0000454200008e0f0000d1
:10364000202f00000d2e00008e010000b10e0000a2
:103650001c2f0000232e00008e0100001a2d0000f8
:103660000e0e0000172f0000a10f0000152f000004
:10367000232e00008d010000132d0000982e000065
:1036800074c0000043540000c20e00000a2f000066
:1036900065500000048000000b300000068200002e
:1036a0000b42000079800000414000001230000011
:1036b000252e00008c0100000142000005300000b2
:1036c00069500000655400008482000043840000bb
:1036d000be8c0000844000008641000026290000c6
:1036e00094420000be8e0000d57f000019a10000aa
:1036f000434000000b2e00008c01000084400000bd
:10370000c74100005d290000272900004542000054
:1037100084420000c27f0000012f0000c0b30000ff
:103720001d2f0000052e00009401000099a000004c
:10373000012f000080b30000132f000080b30000b1
:10374000182f0000c0b30000162f00001240000028
:1037500001400000927f0000982e000074c000001d
:10376000926f0000100f000020300000032f0000b7
:1037700010300000212e00007e0100000a2d000004
:10378000212e00007e010000072d000020300000e7
:10379000212e00007e010000032d000010300000eb
:1037a000212e00007e010000c26f0000012e0000eb
:1037b000c9000000bc8400000280000082400000bc
:1037c00000400000900e0000d56f0000022f0000a6
:1037d00015300000982e0000f30300004191000016
:1037e00005300000072f0000675000003d800000fa
:1037f0002b2e00008f010000054200000480000015
:10380000002e000005420000022c000000300000e5
:1038100000300000a26f0000988a0000864000007f
:1038200080a70000052f0000982e0000f303000081
:10383000c0300000212e0000950100000625000088
:103840001a250000e26f000076820000964000001a
:1038500056430000510e0000fb2f0000bb6f00001c
:10386000305f0000b82e0000012e0000b8000000fc
:10387000013100004108000040b20000205000006b
:10388000f230000002080000fb7f00000130000061
:10389000102f0000052e0000cc00000081900000d9
:1038a000e07f0000032f0000232e0000cc0000006a
:1038b000982e000055b60000982e00001db500009f
:1038c00010250000fb6f0000e06f0000e05f0000cb
:1038d000802e000095cf0000982e000095cf0000ac
:1038e00010300000212e0000cc000000fb6f000013
:1038f000e05f0000b82e00000051000005580000f5
:10390000eb7f00002a250000895200006f5a00005a
:10391000895000001341000006400000b301000080
:1039200016420000cb16000006400000f302000023
:1039300013420000650e0000f52f00000540000056
:10394000143000002c2900000442000008a10000ef
:1039500000300000902e000052b60000b388000036
:10396000b08a0000b6840000a47f0000c47f00007d
:10397000b57f0000d57f0000927f0000733000000b
:103980000430000055400000424000008a1700004b
:10399000f30800006b0100009002000053b8000023
:1039a0004b820000adbe0000717f0000450a0000a0
:1039b00009540000847f0000982e0000d9c0000048
:1039c000a36f00007b540000d0420000a37f0000e2
:1039d000f27f0000607f000020250000716f000072
:1039e000755a000077580000795c00007556000099
:1039f000982e000067cc0000b16f0000626f0000dd
:103a000050420000b17f0000b330000010250000dc
:103a1000982e00000fca0000846f000020290000cb
:103a2000716f0000926f0000a56f000076820000a9
:103a30006a0e00007330000000300000d02f00003c
:103a4000d26f0000d17f0000b47f0000982e0000ec
:103a50002bb7000015bd00000bb80000020a0000e3
:103a6000c26f0000c07f0000982e00002bb700003e
:103a700015bd00000bb80000420a0000c06f000036
:103a8000081700004118000089160000e118000026
:103a9000d0180000a17f0000272500001625000097
:103aa000982e000079c000008b540000907f000029
:103ab000b330000082400000809000000d2f000015
:103ac0007d520000926f0000982e00000fca000087
:103ad000b26f0000900e0000062f00008b50000017
:103ae00014300000426f0000516f000014420000cb
:103af0001242000001420000002e0000316f000061
:103b0000982e000074c00000416f0000807f00000c
:103b1000982e000074c00000826f000010040000a6
:103b200043520000010f0000052e0000cb000000f2
:103b30000030000004300000212f0000516f000011
:103b4000435800008c0e0000043000001c2f0000c1
:103b500085880000416f0000044100008c0f0000c8
:103b600004300000162f000084880000002e0000a2
:103b700004410000040500008c0e00000430000029
:103b80000f2f000082880000316f00000441000008
:103b9000040500008c0e000004300000082f000017
:103ba00083880000002e0000044100008c0f0000fc
:103bb00004300000022f0000212e0000ad010000a3
:103bc0001430000000910000142f0000032e0000ac
:103bd000a1010000419000000e2f0000032e000004
:103be000ad010000143000004c280000232e00001e
:103bf000ad01000046a00000062f000081840000f7
:103c00008d5200004882000082400000212e0000fa
:103c1000a1010000424200005c2c000002300000c4
:103c2000052e0000aa01000080b200000230000052
:103c3000552f0000032e0000a9010000926f000024
:103c4000b3300000982e00000fca0000b26f0000d1
:103c5000900f000000300000023000004a2f0000ea
:103c6000a26f000087520000910000008552000002
:103c7000510e0000022f0000002e0000432c000017
:103c800002300000c26f00007f520000910e000061
:103c9000023000003c2f0000516f000081540000f2
:103ca000982e0000fec9000010250000b33000006f
:103cb00021250000982e00000fca0000326f00007e
:103cc000c07f0000b330000012250000982e0000d5
:103cd0000fca0000426f0000b07f0000b330000048
:103ce00012250000982e00000fca0000b26f0000dd
:103cf0009028000083520000982e0000fec90000aa
:103d0000c26f0000900f0000003000000230000081
:103d10001d2f0000052e0000a101000080b2000050
:103d2000123000000f2f0000426f0000032e000031
:103d3000ab010000910e000002300000122f0000c5
:103d4000526f0000032e0000ac010000910f000034
:103d5000023000000c2f0000212e0000aa010000fc
:103d60000a2c000012300000032e0000cb000000df
:103d70008d580000088900004140000011430000f8
:103d800000430000252e0000a1010000d46f0000b8
:103d90008f520000004300003a890000002e00000e
:103da0001043000010430000610e0000fb2f0000d4
:103db000032e0000a0010000111a0000022f0000d5
:103dc00002250000212e0000a0010000eb6f000082
:103dd000005f0000b82e000091520000103000007b
:103de0000230000095560000524200004b0e0000c9
:103df000fc2f00008d5400008882000093560000c4
:103e00008042000053420000404200004286000011
:103e100083540000c02e0000c2420000002e0000ab
:103e2000a352000000510000524000004740000033
:103e30001a250000012e0000970000008fbe000030
:103e400072860000fb7f00000b3000007cbf00008a
:103e5000a550000010080000dfba000070880000c4
:103e6000f8bf0000cb420000d37f00006cbb000015
:103e7000fcbb0000c50a0000907f00001b7f000013
:103e80000b430000c0b20000e57f0000b77f0000d8
:103e9000a67f0000c47f0000902e00001cb7000029
:103ea000072e0000d2000000c0b200000b2f00005f
:103eb00097520000012e0000cd000000827f00001c
:103ec000982e0000bbcc00000b300000372e000005
:103ed000d2000000826f0000906f00001a250000e1
:103ee00000b200008b7f0000142f0000a6bd000070
:103ef00025bd0000b6b900002fb9000080b2000057
:103f0000d4b000000c2f0000995400009b56000014
:103f10000b3000000b2e0000b1000000a158000083
:103f20009b420000db4200006c0900002b2e0000c9
:103f3000b10000008b420000cb420000867f0000f1
:103f400073840000a7560000c30800003952000027
:103f500005500000727f0000637f0000982e000073
:103f6000c2c00000e16f0000626f0000d10a0000d3
:103f7000012e0000cd000000d56f0000c46f0000ce
:103f8000726f0000975200009d5c0000982e0000a8
:103f900006cd0000236f0000906f000099520000d2
:103fa000c0b2000004bd000054400000afb90000e2
:103fb00045400000e17f000002300000062f0000b5
:103fc000c0b2000002300000032f00009b5c000024
:103fd00012300000944300008543000003bf00003e
:103fe0006fbb000080b30000202f0000066f0000b0
:103ff00026010000166f00006e030000454200001d
:10400000c0900000292e0000ce0000009b5200004e
:10401000142f00009b5c0000002e00009341000064
:1040200086410000e3040000ae07000080ab000002
:10403000042f0000809100000a2f0000866f00000e
:10404000730f0000072f0000836f0000c0b2000054
:10405000042f0000544200004542000012300000ce
:10406000042c000011300000022c00001130000070
:104070001130000002bc00000fb80000d27f000029
:1040800000b200000a2f0000012e0000fc0000001a
:10409000052e0000c7010000101a0000022f0000ca
:1040a000212e0000c7010000032d0000022c00009b
:1040b0000130000001300000b06f0000982e0000b9
:1040c00095cf0000d16f0000a06f0000982e000077
:1040d00095cf0000e26f00009f520000012e00000b
:1040e000ce00000082400000504200000c2c000076
:1040f0004242000011300000232e0000d2000000d8
:1041000001300000b06f0000982e000095cf000035
:10411000a06f000001300000982e000095cf000035
:10412000002e0000fb6f0000005f0000b82e0000b2
:104130008386000001300000003000009440000041
:104140002418000006000000530e00004f0200007b
:10415000f92f0000b82e0000a9520000002e000028
:1041600060400000414000000dbc000098bc000011
:10417000c02e0000010a00000fb80000ab52000082
:10418000533c000052400000404000004b00000043
:104190008216000026b9000001b80000414000006e
:1041a0001008000097b8000001080000c02e0000b1
:1041b0001130000001080000438600002540000087
:1041c00004400000d8be00002c0b000022110000ab
:1041d00054420000038000004b0e0000f62f000048
:1041e000b82e00009f50000010500000ad5200009b
:1041f000052e0000d3000000fb7f0000002e000011
:104200001340000093420000410e0000fb2f00000d
:10421000982e0000a5b70000982e000087cf000060
:10422000012e0000d900000000b20000fb6f00006a
:104230000b2f0000012e000069f70000b13f0000c5
:104240000108000001300000f05f0000232e000094
:10425000d9000000212e000069f70000802e000028
:104260007ab70000f05f0000b82e0000012e0000b9
:10427000c0f80000032e0000fcf5000015540000fb
:10428000af560000820800000b2e000069f7000006
:10429000cb0a0000b158000080900000ddbe000095
:1042a0004c0800005fb90000592200008090000017
:1042b000072f000003340000c3080000f23a00009a
:1042c0000a08000002350000c09000004a0a000001
:1042d00048220000c02e0000232e0000fcf5000044
:1042e00010500000fb7f0000982e000056c7000011
:1042f000982e000049c3000010300000fb6f000042
:10430000f05f0000212e0000cc000000212e0000f4
:10431000ca000000b82e0000032e0000d3000000e9
:1043200016b80000023400004a0c0000212e0000e4
:104330002df50000c02e0000232e0000d300000049
:1043400003bc0000212e0000d5000000032e000059
:10435000d500000040b2000010300000212e000007
:104360007700000001300000052f0000052e00003e
:10437000d800000080900000012f0000232e0000d4
:104380006ff50000c02e0000212e0000d9000000b3
:104390001130000081080000012e00006af70000c3
:1043a000713f000023bd000001080000020a000068
:1043b000c02e0000212e00006af70000302500000a
:1043c00000300000212e00005af5000010500000bf
:1043d000212e00007b000000212e00007c00000048
:1043e000fb7f0000982e0000c3b7000040300000a3
:1043f000212e0000d4000000fb6f0000f05f0000e1
:1044000003250000802e0000afb70000802e0000c2
:1044100000c10000802e000000c10000802e0000be
:1044200000c10000802e000000c10000802e0000ae
:1044300000c10000802e000000c10000802e00009e
:1044400000c10000802e000000c10000802e00008e
:1044500000c10000802e000000c10000802e00007e
:1044600000c10000802e000000c10000802e00006e
:1044700000c10000802e000000c10000802e00005e
:1044800000c10000012e00005df7000008bc000024
:1044900080ac00000ebb0000022f000000300000c6
:1044a0004104000082060000c0a4000000300000ab
:1044b000112f000040a90000032f000040910000d0
:1044c0000d2f000000a700000b2f000080b300009c
:1044d000b3580000022f000090a100002613000036
:1044e000202300008090000010300000012f000009
:1044f000cc0e0000002f000000300000b82e00009d
:10450000b55000001808000008bc000088b6000084
:104510000d170000c6bd000056bc0000b7580000d3
:10452000daba0000040100001d0a0000105000006b
:10453000053000003225000045030000fb7f00002d
:10454000f630000021250000982e000037ca000038
:1045500016b500009abc000006b8000080a8000054
:10456000410a00000e2f000080900000022f000082
:104570002d500000480f0000092f0000bfa00000d0
:10458000042f0000bf900000062f0000b754000069
:10459000ca0f0000032f0000002e0000022c0000b4
:1045a000b75200002d520000f2330000982e000098
:1045b000d9c00000fb6f0000f1370000c02e0000e2
:1045c00001080000f05f0000bf560000b954000071
:1045d000d0400000c44000000b2e0000fdf300009e
:1045e000bf5200009042000094420000954200003b
:1045f00005300000c15000000f8800000640000098
:104600000441000096420000c542000048be000080
:10461000733000000d2e0000d80000004fba0000db
:10462000844200000342000081b30000022f00001a
:104630002b2e00006ff50000062d0000052e000057
:1046400077f70000bd56000093080000252e0000fb
:1046500077f70000bb540000252e0000c2f50000d3
:10466000072e0000fdf3000042300000b4330000cc
:10467000da0a00004c000000272e0000fdf30000c5
:1046800043400000d43f0000dc080000434200002b
:10469000002e0000002e00004340000024300000e7
:1046a000dc0a00004342000004800000032e0000ea
:1046b000fdf300004a0a0000232e0000fdf3000075
:1046c00061340000c02e000001420000002e0000f6
:1046d000605000001a2500007a860000e07f00008c
:1046e000f37f000003250000c35200004184000056
:1046f000db7f000033300000982e000016c200005f
:104700001a2500007d820000f06f0000e26f0000bb
:1047100032250000164000009440000026010000f1
:10472000854000008e170000c44200006e030000a8
:1047300095420000410e0000f42f0000db6f0000e6
:10474000a05f0000b82e0000b0510000fb7f000009
:10475000982e0000e80d00005a250000982e000059
:104760000f0e0000cb58000032870000c47f00000d
:10477000658900006b8d0000c55a0000657f000050
:10478000e17f0000837f0000a67f0000747f0000af
:10479000d07f0000b67f0000947f0000173000003b
:1047a000c7520000c9540000517f0000002e0000d5
:1047b000856f0000427f0000002e00005141000084
:1047c0004581000042410000134000003b8a000088
:1047d000004000004b040000d0060000c0ac000008
:1047e000857f0000022f000002300000510400000d
:1047f000d306000041840000053000005d02000087
:10480000c9160000df080000d30000008d02000080
:10481000afbc0000b1b90000590a0000656f00008c
:1048200011430000a1b400005241000053410000b8
:1048300001430000347f0000657f00002631000046
:10484000e56f0000d46f0000982e000037ca00000a
:10485000326f0000756f000083400000424100008d
:10486000237f0000127f0000f6300000402500008a
:1048700051250000982e000037ca0000146f000078
:1048800020050000706f0000256f00006907000020
:10489000a26f0000316f00000b30000004420000e6
:1048a0009b4200008b42000055420000327f000016
:1048b00040a90000c36f0000717f000002300000bb
:1048c000d0400000c37f0000032f00004091000093
:1048d000152f000000a70000132f000000a4000007
:1048e000112f000084bd0000982e000079ca00003e
:1048f000556f0000b75400005441000082000000d2
:10490000f33f000045410000cb020000f6300000fc
:10491000982e000037ca0000356f0000a46f000019
:1049200041430000032c000000430000a46f00007e
:10493000356f000017300000426f0000516f00001b
:10494000934000004282000000410000c3000000cc
:1049500003430000517f0000002e0000944000003f
:10496000414100004c020000c46f0000d15600001d
:10497000630e0000746f000051430000a57f00002b
:104980008a2f0000092e0000d800000001b30000ab
:10499000212f0000cb580000906f00001341000051
:1049a000b66f0000e47f0000002e0000914100007f
:1049b000144000009241000015400000172e000036
:1049c0006ff50000b67f0000d07f0000cb7f0000b5
:1049d000982e0000000c000007150000c26f0000b8
:1049e000140b0000292e00006ff50000c3a3000087
:1049f000c18f0000e46f0000d06f0000e62f0000c0
:104a000014300000052e00006ff50000140b0000ac
:104a1000292e00006ff50000182d0000cd56000073
:104a200004320000b56f00001c010000514100007d
:104a300052410000c3400000b57f0000e47f000049
:104a4000982e00001f0c0000e46f0000218700007a
:104a50000043000004320000cf5400005a0e000052
:104a6000ef2f000015540000092e000077f700001a
:104a7000220b0000292e000077f70000fb6f0000da
:104a8000505e0000b82e000010500000012e000003
:104a9000d400000000b20000fb7f0000512f000096
:104aa00001b20000482f000002b20000422f0000b7
:104ab00003900000562f0000d752000079800000bc
:104ac000424000008184000000400000424200009b
:104ad000982e0000930c0000d9540000d75000001d
:104ae000a140000098bd0000824000003e8200000e
:104af000da0a0000444000008b160000e3000000ca
:104b000053420000002e0000434000009a020000c3
:104b100052420000002e00004140000015540000e9
:104b20004a0e00003a2f00003a82000000300000d8
:104b300041400000212e0000850f000040b200001f
:104b40000a2f0000982e0000b10c0000982e0000e3
:104b5000450e0000982e00005b0e0000fb6f000069
:104b6000f05f000000300000802e0000ceb7000093
:104b7000dd520000d3540000424200004f84000088
:104b800073300000db520000834200001b30000045
:104b90006b42000023300000272e0000d7000000e9
:104ba000372e0000d4000000212e0000d6000000a7
:104bb0007a840000172c00004242000030300000d0
:104bc000212e0000d4000000122d00002130000032
:104bd00000300000232e0000d4000000212e000031
:104be0007bf700000b2d000017300000982e00000e
:104bf000510c0000d55000000c8200007230000003
:104c00002f2e0000d4000000252e00007bf70000ae
:104c100040420000002e0000fb6f0000f05f00002b
:104c2000b82e0000705000000a25000039860000f0
:104c3000fb7f0000e132000062300000982e00008f
:104c4000c2c40000b5560000a56f0000ab0800000c
:104c5000916f00004b080000df560000c46f000099
:104c6000230900004dba000093bc00008c0b00002b
:104c7000d16f00000b090000cb520000e15e000084
:104c800056420000af0900004dba000023bd0000ed
:104c9000940a0000e56f000068bb0000eb0800000c
:104ca000bdb9000063be0000fb6f0000524200006f
:104cb000e30a0000c02e000043420000905f0000a5
:104cc000d1500000032e000025f300001340000027
:104cd000004000009bbc00009bb4000008bd000029
:104ce000b8b9000098bc0000da0a000008b600005d
:104cf00089160000c02e00001900000062020000aa
:104d000010500000fb7f0000982e0000810d000075
:104d1000012e0000d4000000313000000804000023
:104d2000fb6f000001300000f05f0000232e000048
:104d3000d6000000212e0000d7000000b82e000091
:104d4000012e0000d7000000032e0000d600000056
:104d5000480e0000012f0000802e00001f0e0000f2
:104d6000b82e0000e3500000213400000142000092
:104d700082300000c1320000252e000062f50000e4
:104d80000100000022300000014000004a0a00003b
:104d900001420000b82e0000e3540000f03b000088
:104da00083400000d8080000e55200008342000064
:104db000003000008330000050420000c432000088
:104dc000272e000064f5000094000000504200000f
:104dd00040420000d33f0000844000007d8200007c
:104de000e30800004042000083420000b82e0000ab
:104df000dd52000000300000404200007c860000d0
:104e0000b9520000092e0000700f0000bf540000ce
:104e1000c4420000d386000054400000554000000a
:104e20009442000085420000212e0000d7000000bf
:104e300042400000252e0000fdf30000c0420000ab
:104e40007e820000052e00007d00000080b2000080
:104e5000142f0000052e00008900000027bd00006f
:104e60002fb9000080900000022f0000212e0000ca
:104e70006ff500000c2d0000072e0000710f0000e0
:104e8000143000001c090000052e000077f7000018
:104e9000bd56000047be000093080000940a0000c1
:104ea000252e000077f70000e75400005042000074
:104eb0004a0e0000fc2f0000b82e000050500000e9
:104ec0000230000043860000e5500000fb7f000038
:104ed000e37f0000d27f0000c07f0000b17f0000b0
:104ee000002e000041400000004000004804000087
:104ef000982e000074c000001eaa0000d36f0000ae
:104f000014300000b16f0000e3220000c06f000009
:104f100052400000e46f00004c0e000012420000fe
:104f2000d37f0000eb2f0000032e0000860f00004f
:104f30004090000011300000032f0000232e0000dd
:104f4000860f0000022c000000300000d06f00002f
:104f5000fb6f0000b05f0000b82e00004050000062
:104f6000f17f00000a2500003c860000eb7f000076
:104f70004133000022300000982e0000c2c400001f
:104f8000d36f0000f4300000dc0900004758000037
:104f9000c26f000094090000eb5800006abb0000db
:104fa000dc080000b4b90000b1bd0000e95a0000ff
:104fb0009508000021bd0000f6bf0000770b00003f
:104fc00051be0000f16f0000eb6f00005242000084
:104fd00054420000c02e000043420000c05f0000a9
:104fe00050500000f5500000313000001142000028
:104ff000fb7f00007b3000000b42000011300000fe
:105000000280000023330000014200000300000082
:10501000072e000080030000052e0000d3000000d2
:1050200023520000e27f0000d37f0000c07f000019
:10503000982e0000b60e0000d16f0000080a000094
:105040001a2500007b860000d07f0000013300009d
:1050500012300000982e0000c2c40000d16f000082
:10506000080a000000b200000d2f0000e36f0000ee
:10507000012e00008003000051300000c7860000b0
:10508000232e000021f2000008bc0000c0420000f6
:10509000982e0000a5b70000002e0000002e000092
:1050a000d02e0000b06f00000bb80000032e0000ef
:1050b0001b000000081a0000b07f000070300000e4
:1050c000042f0000212e000021f20000002e00001d
:1050d000002e0000d02e0000982e00006dc00000b1
:1050e000982e00005dc00000ed500000982e0000da
:1050f00044cb0000ef500000982e000046c3000093
:10510000f1500000982e000053c7000035500000f9
:10511000982e000064cf000010300000982e000090
:10512000dc03000020260000c06f000002310000f8
:1051300012420000ab3300000b4200003780000039
:105140000130000001420000f3370000f752000078
:10515000fb50000044400000a20a00004242000050
:105160008b310000092e00005ef70000f9540000aa
:10517000e3080000834200001b42000023330000cc
:105180004b000000bc8400000b40000033300000e6
:10519000834200000b420000e07f0000d17f00004e
:1051a000982e000058b70000d16f0000803000003a
:1051b0004042000003300000e06f0000f3540000a4
:1051c00004300000002e0000002e000001890000c5
:1051d000620e0000fa2f0000434200001130000070
:1051e000fb6f0000c02e000001420000b05f000015
:1051f000c14a0000000000006d57000000000000e0
:10520000778e000000000000e0ff0000ffff0000bc
:10521000d3ff0000ffff0000e5ff0000ffff0000dc
:10522000eee10000ffff00007c1300000000000022
:1052300046e60000ffff0000000000000000000044
:10524000000000000000000000000000000000005e
:10525000000000000000000000000000000000004e
:10526000000000000000000000000000000000003e
:10527000000000000000000000000000000000002e
:10528000000000000000000000000000000000001e
:10529000000000000000000000000000000000000e
:1052a000000000000000000000000000802e000050
:1052b00000c10000802e000000c10000802e000010
:1052c00000c10000802e000000c10000802e000000
:1052d00000c10000802e000000c10000802e0000f0
:1052e00000c10000802e000000c10000802e0000e0
:1052f00000c10000802e000000c10000802e0000d0
:1053000000c10000802e000000c10000802e0000bf
:1053100000c10000802e000000c10000802e0000af
:1053200000c10000802e000000c10000802e00009f
:1053300000c10000802e000000c10000802e00008f
:1053400000c10000802e000000c10000802e00007f
:1053500000c10000802e000000c10000802e00006f
:1053600000c10000802e000000c10000802e00005f
:1053700000c10000802e000000c10000802e00004f
:1053800000c10000802e000000c10000802e00003f
:1053900000c10000802e000000c10000802e00002f
:1053a00000c10000802e000000c10000802e00001f
:1053b00000c10000802e000000c10000802e00000f
:1053c00000c10000802e000000c10000802e0000ff
:1053d00000c10000802e000000c10000802e0000ef
:1053e00000c10000802e000000c10000802e0000df
:1053f00000c10000802e000000c10000802e0000cf
:1054000000c10000802e000000c10000802e0000be
:1054100000c10000802e000000c10000802e0000ae
:1054200000c10000802e000000c10000802e00009e
:1054300000c10000802e000000c10000802e00008e
:1054400000c10000802e000000c10000802e00007e
:1054500000c10000802e000000c10000802e00006e
:1054600000c10000802e000000c10000802e00005e
