:020000040000fa
:080000000002040000000000f2
:020000040000fa
:0400080026040000ca
:020000040000fa
:04000c0026040000c6
:020000040000fa
:0400100026040000c2
:020000040000fa
:0400140026040000be
:020000040000fa
:0400180026040000ba
:020000040000fa
:04001c0026040000b6
:020000040000fa
:0400200026040000b2
:020000040000fa
:0400240026040000ae
:020000040000fa
:0400280026040000aa
:020000040000fa
:04002c00fe020000d0
:020000040000fa
:0400300026040000a2
:020000040000fa
:04003400260400009e
:020000040000fa
:04003800260400009a
:020000040000fa
:04003c002604000096
:020000040000fa
:040040002604000092
:020000040000fa
:04004400260400008e
:020000040000fa
:04004800260400008a
:020000040000fa
:04004c002604000086
:020000040000fa
:040050002604000082
:020000040000fa
:04005400260400007e
:020000040000fa
:04005800260400007a
:020000040000fa
:04005c002604000076
:020000040000fa
:040060002604000072
:020000040000fa
:04006400460300004f
:020000040000fa
:04006800260400006a
:020000040000fa
:04006c002604000066
:020000040000fa
:040070002604000062
:020000040000fa
:04007400260400005e
:020000040000fa
:04007800640300001d
:020000040000fa
:04007c002604000056
:020000040000fa
:040080002604000052
:020000040000fa
:04008400260400004e
:020000040000fa
:04008800260400004a
:020000040000fa
:04008c002604000046
:020000040000fa
:040090002604000042
:020000040000fa
:04009400260400003e
:020000040000fa
:04009800260400003a
:020000040000fa
:04009c002604000036
:020000040000fa
:0400a0002604000032
:020000040000fa
:0400a400260400002e
:020000040000fa
:0400a800260400002a
:020000040000fa
:0400ac002604000026
:020000040000fa
:0400b0002604000022
:020000040000fa
:0400b400260400001e
:020000040000fa
:0400b800260400001a
:020000040000fa
:0400bc002604000016
:020000040000fa
:0400c0002604000012
:020000040000fa
:0400c400260400000e
:020000040000fa
:0400c800260400000a
:020000040000fa
:0400cc002604000006
:020000040000fa
:0400d0002604000002
:020000040000fa
:0400d40026040000fe
:020000040000fa
:0400d80026040000fa
:020000040000fa
:0400dc0026040000f6
:020000040000fa
:0400e00026040000f2
:020000040000fa
:0400e40026040000ee
:020000040000fa
:0400e80026040000ea
:020000040000fa
:0400ec0026040000e6
:020000040000fa
:0400f00026040000e2
:020000040000fa
:0400f40026040000de
:020000040000fa
:0400f80026040000da
:020000040000fa
:0400fc0026040000d6
:020000040000fa
:0401000026040000d1
:020000040000fa
:0401040026040000cd
:020000040000fa
:0401080026040000c9
:020000040000fa
:04010c0026040000c5
:020000040000fa
:0401100026040000c1
:020000040000fa
:0401140026040000bd
:020000040000fa
:0401180026040000b9
:020000040000fa
:04011c0026040000b5
:020000040000fa
:0401200026040000b1
:020000040000fa
:0401240026040000ad
:020000040000fa
:0401280026040000a9
:020000040000fa
:04012c0026040000a5
:020000040000fa
:0401300026040000a1
:020000040000fa
:04013400260400009d
:020000040000fa
:040138002604000099
:020000040000fa
:04013c002604000095
:020000040000fa
:040140002604000091
:020000040000fa
:04014400260400008d
:020000040000fa
:040148002604000089
:020000040000fa
:04014c002604000085
:020000040000fa
:040150002604000081
:020000040000fa
:04015400260400007d
:020000040000fa
:040158002604000079
:020000040000fa
:04015c002604000075
:020000040000fa
:040160002604000071
:020000040000fa
:04016400260400006d
:020000040000fa
:040168002604000069
:020000040000fa
:04016c002604000065
:020000040000fa
:040170002604000061
:020000040000fa
:04017400260400005d
:020000040000fa
:040178002604000059
:020000040000fa
:04017c002604000055
:020000040000fa
:040180002604000051
:020000040000fa
:04018400260400004d
:020000040000fa
:040188002604000049
:020000040000fa
:04018c002604000045
:020000040000fa
:040190002604000041
:020000040000fa
:04019400c60300009e
:020000040000fa
:040198002604000039
:020000040000fa
:04019c002604000035
:020000040000fa
:0401a000f603000062
:020000040000fa
:0401a400260400002d
:020000040000fa
:0401a8002604000029
:020000040000fa
:0401ac002604000025
:020000040000fa
:0401b0002604000021
:020000040000fa
:0401b400260400001d
:020000040000fa
:0401b8002604000019
:020000040000fa
:0401bc002604000015
:020000040000fa
:0401c0002604000011
:020000040000fa
:0401c400260400000d
:020000040000fa
:0401c8002604000009
:020000040000fa
:0401cc002604000005
:020000040000fa
:0401d0002604000001
:020000040000fa
:0401d40026040000fd
:020000040000fa
:0401d80026040000f9
:020000040000fa
:0401dc0026040000f5
:020000040000fa
:0401e00026040000f1
:020000040000fa
:0401e40026040000ed
:020000040000fa
:0401e80026040000e9
:020000040000fa
:0401ec0026040000e5
:020000040000fa
:0401f00026040000e1
:020000040000fa
:0401f40026040000dd
:020000040000fa
:0401f80026040000d9
:020000040000fa
:0401fc0026040000d5
:020000040000fa
:0402000026040000d0
:020000040000fa
:0402040026040000cc
:020000040000fa
:0402080026040000c8
:020000040000fa
:04020c0026040000c4
:020000040000fa
:0402100026040000c0
:020000040000fa
:0402140026040000bc
:020000040000fa
:0402180026040000b8
:020000040000fa
:04021c0026040000b4
:020000040000fa
:0402200026040000b0
:020000040000fa
:0402240026040000ac
:020000040000fa
:0402280026040000a8
:020000040000fa
:04022c0026040000a4
:020000040000fa
:0402300026040000a0
:020000040000fa
:04023400260400009c
:020000040000fa
:040238002604000098
:020000040000fa
:04023c002604000094
:020000040000fa
:040240002604000090
:020000040000fa
:04024400260400008c
:020000040000fa
:040248002604000088
:020000040000fa
:04024c002604000084
:020000040000fa
:040250002604000080
:020000040000fa
:04025400260400007c
:020000040000fa
:040258002604000078
:020000040000fa
:04025c002604000074
:020000040000fa
:040260002604000070
:020000040000fa
:040264008c03000007
:020000040000fa
:040268002604000068
:020000040000fa
:04026c002604000064
:020000040000fa
:040270002604000060
:020000040000fa
:04027400260400005c
:020000040000fa
:040278002604000058
:020000040000fa
:04027c002604000054
:020000040000fa
:040280002604000050
:020000040000fa
:04028400260400004c
:020000040000fa
:040288002604000048
:020000040000fa
:04028c002604000044
:020000040000fa
:040290002604000040
:020000040000fa
:04029400260400003c
:020000040000fa
:040298002604000038
:020000040000fa
:04029c002604000034
:020000040000fa
:0402a0002604000030
:020000040000fa
:0402a400260400002c
:020000040000fa
:0402a8002604000028
:020000040000fa
:0402ac002604000024
:020000040000fa
:0402b0002604000020
:020000040000fa
:0402b400260400001c
:020000040000fa
:0402b8002604000018
:020000040000fa
:0402bc002604000014
:020000040000fa
:0402c0002604000010
:020000040000fa
:0402c400260400000c
:020000040000fa
:0402c8002604000008
:020000040000fa
:0402cc002604000004
:020000040000fa
:0402d0002604000000
:020000040000fa
:0402d40026040000fc
:020000040000fa
:0402d80026040000f8
:020000040000fa
:0402dc0026040000f4
:020000040000fa
:0402e00026040000f0
:020000040000fa
:0402e40026040000ec
:020000040000fa
:0402e80026040000e8
:020000040000fa
:0402ec0026040000e4
:020000040000fa
:0402f00026040000e0
:020000040000fa
:0402f40026040000dc
:020000040000fa
:0402f80026040000d8
:020000040000fa
:0402fc0026040000d4
:020000040000fa
:0403000026040000cf
:020000040000fa
:0403040026040000cb
:020000040000fa
:0403080026040000c7
:020000040000fa
:04030c0026040000c3
:020000040000fa
:0403100026040000bf
:020000040000fa
:0403140026040000bb
:020000040000fa
:0403180026040000b7
:020000040000fa
:04031c0026040000b3
:020000040000fa
:0403200026040000af
:020000040000fa
:0403240026040000ab
:020000040000fa
:0403280026040000a7
:020000040000fa
:04032c0026040000a3
:020000040000fa
:100400004f0e21000eff26000e01880000000000a4
:10041000000020000000e000020032000001200087
:1004200020028800140007000a0107000000e00015
:1004300003003a00208a2400010020000200370057
:100440000000200001002000810f70000100320038
:100450000f000700000020000000e0000200320052
:100460000000020000000000f24402000000000052
:100470000040da000000fe00800d22000000e000d5
:1004800002003200002020009001880000000600d9
:10049000a1028800800478000000eb001f003700f4
:1004a000e284440054a0b4009905ba00e2844400f8
:1004b00054a0b4009906ba00e284440054a0b400e9
:1004c0000006eb00476fde00fd07b200ae018800ba
:1004d000636ce10003003a000ad801000000eb0061
:1004e0000e003700606ce10008003a00004deb00a0
:1004f0000a05e800020039003420ec000af0a000f0
:100500008b05e900f9ff3e00040037006168e10057
:10051000010032000086eb000b00070019c7ba008b
:100520001905ba000e04e00003003a000a00e000da
:10053000dbff3a0000000600fe07b200ae028800b2
:100540008a047800f5ff37000cd0a300e20f4d00bd
:100550001c003b0089027800354dba000a05e8000e
:10056000020039003420ec000af0a0008b05e900fd
:100570000f003200254dba000a05e80002003900dc
:100580003420ec000af0a0008b05e90008003200de
:100590000c00e0000600320015cdba000a05e800a4
:1005a000020039003420ec000af0a0008b05e900bd
:1005b0008984e80054a0b4000b00e000e2ff3a0098
:1005c000000006009902ba00055d78008b05e9007d
:1005d000f7ff3200c82ade00055d78008b05e900d0
:1005e000f3ff32000c00e000f1ff320019ddba0029
:1005f000eeff37002248040000000000809fbe008c
:100600000000fa000028a900508280000000e800e5
:1006100050828800708280000000e80070828800ac
:10062000608280000000e8006082880008cba8009b
:1006300002eca80050828000e20f500003003a0054
:100640004a30ef0010002000208288007082800075
:10065000e10f500003003a004e30ef001000200080
:10066000408288006182800000052000808f500059
:1006700003003a004c30ef00100020003082880068
:100680000080fa004f00be0000400600801f780086
:100690000000fa0010828000e10f500003003a00d1
:1006a000236ea9004230ef0003003700236ea8003c
:1006b000100020001082880001e8a9000080fa00e4
:1006c0004f007800004006003600f800809fbe0012
:1006d000829fbe00849fbe00869fbe000000fa007d
:1006e000068ea900007c220091002000ba2207009b
:1006f000068ea8000f2007000288a9000080fa00db
:100700004f03be004f02be004f01be004f00be00af
:100710003600f90000400600801f78000000fa0053
:10072000007b8000640060000000e00001003a00ef
:100730000230ef00007b8000640060000000e000f9
:10074000020032001000200020808800007b800022
:10075000700060000000e000020032001000200085
:1007600030808800007b8000680060000000e000ae
:1007700002003200100020004080880011e8a9002b
:100780000080fa004f007800004006003600f800b4
:10079000809fbe00829fbe00849fbe00869fbe00d9
:1007a0000000fa0060608000b0818800b0818000a5
:1007b000cf80de00430007003233230033a523003f
:1007c00048010700f0818800018288000b68a900b9
:1007d0000080fa004f03be004f02be004f01be0072
:1007e0004f00be003600f900004006003600f80059
:1007f000809fbe00829fbe00849fbe00869fbe0079
:100800000000fa0090608000c0818800c0818000f4
:10081000cf80de002b0007003233230033a52300f6
:1008200030010700d0818800e18188000bc8a90051
:100830000080fa004f03be004f02be004f01be0011
:100840004f00be003600f900004006000040da000c
:100850000000fe00000005000001be001e000700b1
:100860000470a70003f0a10003f8a30013003a00ee
:100870006509b10010003200090035006928e10067
:1008800002003500010028000000050000004000c3
:10089000818048008502e900fcff3a000000060064
:1008a000f88f4200050035008100d1000080d300a0
:1008b0008502e800fcff3a00000006008000eb0023
:1008c000000005004f89de00820178000702370032
:1008d0006011b80015023700c70ade00f107b20048
:1008e000f50fb20008003200e1cf420002003200f2
:1008f0000170a00024000500810f7000010032008b
:100900000408050044000500810f700002003a0051
:10091000140005008502e9000000400081c0480085
:10092000fcff3b000170a0002400050007f8270031
:10093000078361000638e10004003a00f707200051
:10094000878361008703710001003a0003f0a20071
:10095000889fbe008a9fbe008c9fbe00470ade00b3
:100960000480a100c71ade000580a100070028004e
:100970000785600087856100f70f20000720e100f0
:100980009e0032000728e1009c003200010678003a
:100990000400e000b4003200f70720008780600008
:1009a0000170a0000500e000c0003200f707200041
:1009b000878161000370a000050652000f003a0015
:1009c0000b50e1000b0032000308e10002003a0086
:1009d0000200e1007e0032000204500083845800cf
:1009e000040031000001fd008101fd008402fd00d2
:1009f0008a05fd006044b800210037000520e100b1
:100a000005003d000001fd008101fd008402fd00a4
:100a10008a05fd00050652007a60e10005003500f8
:100a20000170a1004722dd00848070008a80700080
:100a3000630037006044b800ef02660007ff2f0034
:100a4000070666000500e00006003400f08312008f
:100a50008714dd000511de00071bdd0006017100b3
:100a60008519de007060e10005003500090478009a
:100a700082047800030178008001eb0070065600c4
:100a80000b50e10003003a00020040008380480060
:100a90000400370060041400e0841c0002005800c9
:100aa000838058000188a300060032008100d10035
:100ab0000080d3008984d3000884d3000402e800b6
:100ac000270037000178a30025003a000100e0006c
:100ad000030032008186cf00698656000a00370085
:100ae0008c0020000000e00004003a0009007800bb
:100af000880478000004eb00700252008086cf006a
:100b00000d0646000c06e9007060e10006003500a5
:100b10008000780009007800880478000004eb0069
:100b200070065600700252000c00e0000c00340009
:100b30008c08dd00f00316000703de0086807000dd
:100b40000c00dd00074bde00060070008c4cdd0061
:100b50000743de00868474000c44dd000c02520062
:100b60006120e100200035006101600007002800dd
:100b700087816400f7ff2700878364000703740000
:100b80000300e0000600320082037300040032001c
:100b90000000e800e08048000188a3000e003a0051
:100ba000f70f20000720e1004a003d000170a1007e
:100bb0004722dd00810072008a8070000000be00c4
:100bc0004f06be004f05be004f04be0000000600e9
:100bd0006000b800faff37008100d1000080d30028
:100be0000402e800eeff3700040178008901740078
:100bf000c20007008a807000f1ff3700180107006b
:100c0000070278000001fd008101fd0014010700ca
:100c100087027800850372000778a3000400320081
:100c20000001fd008101fd0027010700e4ff3700fe
:100c3000850362000768a300080032000b50e10042
:100c400003003200f0ff2f00f1ff2700dcff370028
:100c50000001fd008101fd00d9ff37000468a300f9
:100c6000d7ff3200faff3700f8ff270088836000c3
:100c70000b003a000000e00009003a008303640022
:100c800082837300020032000200be00ccff3700f6
:100c90000b50e100ceff3a000200be00c8ff370053
:100ca00014002000810064003eff3700f8ff270099
:100cb0008883610004003a000200e00002003a006c
:100cc0008c007800beff370015002000830164000f
:100cd00039ff370001f8270000002000810075006f
:100ce000b7ff37000383680007002800070363008d
:100cf000470ade000480a100c71ade000580a100bb
:100d0000f70f20000720e100420032000728e10031
:100d100040003200889fbe008a9fbe008c1f780072
:100d2000f107b200f307b2000400e00064003200f3
:100d30000170a0000500e000680032000370a00010
:100d400085054200eb07b1000204b8000302b800b9
:100d50008484440060854a00020ab8008484440008
:100d60000a854a00030ab800040545000400330060
:100d70000804d0008984d2000a85d2008b05e900de
:100d80006158e1003d0035000210200009016100ba
:100d90000308200089816100f70720008783640031
:100da00008867300c84cde00c853dd0087847400d9
:100db0004855de000300e0000600320082037600a2
:100dc000040032008904e80060054d000a88a30091
:100dd0000c003a00f70f20000758e10044003d00e6
:100de0000a70a100c75ddd000a8575008a007300e6
:100df000090078004f0678004f05be004f04be0082
:100e0000000006000a05d1008984d3008b05e800a4
:100e1000f0ff3700881f7800060478009000070074
:100e2000070278000001fd008101fd008c00070031
:100e300087027800850372000778a300050032005e
:100e40000001fd008101fd009f0007004f047800b4
:100e500000000600850372000748a300030032006b
:100e6000f0ff2f00f1ff2700f8ff370000002000ff
:100e700001f8270088807000f4ff370088017800af
:100e80004848dd00808171004848de00c850dd0020
:100e900001007000c850de00060478000b017800e5
:100ea0001600070088807000d2ff37000500e000c0
:100eb00005003200170020003a0007009dff3700b0
:100ec00081037000f9ff3a00860078004f06780031
:100ed0004f05be004f04be000000050083037100f3
:100ee000f9ff3200270020002e00070094ff370092
:100ef00001f8270086807000f4ff37000100e00051
:100f000026003200610111007810e10023003c004e
:100f10006022b8007010e100040035008002780003
:100f2000010078008000eb00700151000200e00039
:100f30000900340070031100062add00822ade0059
:100f40008603dd00878272000200de00860bdd0072
:100f5000070070008208de0084817100f4ff270022
:100f6000048262008481710004002800848262008f
:100f70006102600005f0a600000006000482710016
:100f8000070032000000e800e08048000000060092
:100f90000002be006000b800efff37006000b8003c
:100fa00000000600889fbe000004eb006138e100ed
:100fb00016003a000100e00008003a00c800de0018
:100fc0004800dd00880020000100e00003003a0036
:100fd000c800de004800dd00680444008184cf00c2
:100fe000e9845400060034008908dd00f083140011
:100ff0008703de00878070000900dd0009044400db
:10100000610214004f04be00000006000300e0006f
:1010100008003a00c811de004811dd0088002000f9
:101020000300e00003003a00c811de004811dd00b3
:10103000680444008384cf00e9845400060034002f
:101040008919dd00f08314008713de0087817100a9
:101050000911dd0009044400e1021400e9ff370032
:101060002700200001f0a70017002000470bde003a
:10107000f60fb200040032000643e8000a00320016
:101080004702b3000000060001037800f607b20033
:101090000603700002003a000703b30000000600d8
:1010a0008702b3000000060001037800f607b200d3
:1010b00006037000020032000770a0000000060066
:1010c0000760a000000006000478a30004003200be
:1010d0000578a300030032000168a30001003a0074
:1010e0000200be000160a00000000600881f78001a
:1010f000030478000300e00007003d0060001000da
:10110000e080180060011900e081190002003b0036
:1011100001f02d00030037000400070008f0a700cd
:1011200001f0a0004f04780000000600889fbe0078
:101130008a9fbe0000827000040271000482710068
:10114000260032000004be000200be006011b8009c
:101150006b092000950220000182cf000a003900af
:101160000541b1000082cf00070039000541b10000
:101170000982cf00040039000541b1000882cf0088
:10118000010039000541b100054252001200320051
:101190000a003b0082817100610164008100d1007e
:1011a0000080d3008984d3000884d3008b05e80035
:1011b0000442e800f7ff3a00070037000804440043
:1011c00089844c0000004800818048008b05e900bc
:1011d0000442e900f9ff3a00030007004f05be0092
:1011e0004f04be0000000600810020006180550011
:1011f0000b003d000b00200061fe2f000100e1000c
:101200001d00340082817100610164008904d100f5
:101210000884d3000000e800faff3a0071002000c3
:1012200061006400030070000200600009003200e9
:1012300061044400e0844c000988a50005003200e8
:101240008b05e8006808e10002003a008904d1003b
:101250000884d300f20f20000258e10005003d0091
:10126000c75ddd00f907b2008980750008007800cd
:10127000000006000bf827008b0078000000050036
:101280000000fa0068815700cfb89700ee0207000f
:101290000080fa00000006001a000700ee02370086
:1012a00080007800040037003104e00002003a00ba
:1012b0000000510000000600010178000108a300b1
:1012c000f9ff3a008101780031017800f4ef2f0036
:1012d000020242000281ea000201620004082800c2
:1012e00004016100f7ff32008300780001017800fb
:1012f0003104e000fdff3a0000005100000006004c
:10130000000006002f04b000889fbe008a9fbe0028
:101310008c9fbe008e1f7800b09f9f00a1a79f00ea
:10132000a37f9f0011007800d0a79f00910090003c
:10133000f1a79f00afa19700a3019000c3a79f0052
:101340002fa2970044029000a49f9f00afa2970095
:10135000350790003204be002205be006022b800ae
:101360006033b8000800be000a01be005606070040
:101370000000e00003003d000bf0a200d0c2b3006b
:10138000040037005fa397000628a300080032007e
:10139000b0c2b300004f7800cfa397008703e900e5
:1013a00087af9f0010002000e0a79f000f003700cc
:1013b000dfa097000138a3000800320000c2b3008c
:1013c000004f78004fa197000201e90082af9f0013
:1013d00013002000e3a79f00040037004fa29700ee
:1013e00084af9f008002eb00e5a79f000800be00cd
:1013f0000a01be00c2ff0700f4ff2f00f5ff2f0017
:10140000f6ff2f00f7ff27000402600085826000ce
:1014100006036100878361006000b80002002000bd
:1014200003ff27000020e10001a8e10002b0e10075
:1014300003b8e10010003a002f7b97008600fb0004
:101440001104b100efa3970007004700f98f500087
:1014500002003e00210d210001003700610d210036
:101460002c050700600d21008dff0700efa09700fd
:1014700001014000140037000020e10001a8e10054
:1014800002b0e10003b8e100120036002f799700a6
:101490008200fb001104b100efa197000300470098
:1014a000f98f500002003e00a10d2100010037001d
:1014b000e10d210017050700e00d210078ff07006e
:1014c0006fa29700040140005fa29700cfa1970090
:1014d000490237006022b8006033b8000800be003f
:1014e0000a01be00f80507000000e00068003200b5
:1014f0006000b8000200200003ff2300d0af9f006f
:10150000e1af9f00f2af9f0083b79f008006eb0022
:101510000802be000a03be0094b79f00a5b79f0053
:10152000b6b79f00c7b79f00070037008d06e800d9
:101530000800be000a01be00d0af9f00e1af9f00cf
:10154000f2af9f0083b79f006022b8000600200022
:10155000470224005fa89700efa897007fa9970093
:101560008fb19700330707000004be000205be00dc
:101570000002be000203be001fb09700afb097008c
:101580003fb19700cfb19700cf0507000000e00002
:10159000e6ff3d000006eb005fac9700efac970064
:1015a0007fad97008fb597002500370040ed2f00e5
:1015b000808f560019003d000c00e00016003a0034
:1015c0006022b80006002000073524001fb09700f5
:1015d000afb097003fb19700cfb197001507070054
:1015e0000002be000203be0094b79f00a5b79f0093
:1015f000b6b79f00c7b79f006022b8000600200062
:10160000073524000800be000a01be0009070700d4
:101610000004be000205be001c0020006022b800cd
:1016200006002000470224000800be000a01be0098
:10163000510607000004be000205be008d06e90049
:101640000802be000a03be001fb09700afb09700ab
:101650003fb19700cfb197009b0507000000e00065
:10166000d2ff35000800be000a01be00d0af9f00c7
:10167000e1af9f00f2af9f0083b79f001fb49700b8
:10168000afb497003fb59700cfb59700080037007b
:101690006022b8000600200007ff2300d4af9f009f
:1016a000e5af9f00f6af9f0087b79f008006eb0075
:1016b000af7a97000500fb009d040700b07f9f00f4
:1016c0007fa39700600020000600e00001003500c5
:1016d0007fa0970071c6b300bf7b970081cf5300f6
:1016e0000a003a00ffa097000100e000cb013200a1
:1016f000cb0137008d0f5000cf013c0090b79f0009
:1017000052c6b300e2cf9f001e003700bf7997009a
:10171000e3cf9f000200370064c6b300e4cf9f0010
:101720000000e80090b79f0060c6b300efca9700c2
:1017300080cf520013003a000d00e00008003d0089
:101740006000b8000200200003ff2300d0af9f001c
:10175000e1af9f00f2af9f0083b79f008006eb00d0
:1017600061c6b300e1cf9f0070c6b3003f79970018
:10177000804f5100030032009fb197008d814100de
:1017800093b79f005faa9700efaa97007fab9700df
:101790008fb39700d4b79f00e5b79f00f6b79f00bf
:1017a00087bf9f000800be000a01be0090af9f00e7
:1017b000a1af9f00b2af9f00c3af9f000006eb0038
:1017c0000802be000a03be00e49f9f00f59f9f0031
:1017d00086a79f0097a79f00310037005fb2970050
:1017e000efb297007fb397008fbb97001fa89700b9
:1017f000afa897003fa99700cfa99700de05070083
:10180000360807000004be000205be0057050700a9
:1018100080027800b5a79f005fb29700efb29700f3
:101820007fb397008fbb97000800be000a01be007f
:10183000800607001faa9700afaa97003fab97004a
:10184000cfab97007b0507000002be000203be007d
:1018500007f0a20094af9f00a5af9f00b6af9f0016
:10186000c7af9f006022b800060020004702240096
:101870005fb09700efb097007fb197008fb99700e6
:10188000bd0507000002be000203be00d4b79f00e2
:10189000e5b79f00f6b79f0087bf9f000c06e800e2
:1018a0009fb29700850f5600ccff35006f9c9700c4
:1018b000ff9c97000fa597009fa597006022b80096
:1018c00006002000470124005fb09700efb09700aa
:1018d0007fb197008fb99700560607000002be003f
:1018e0000203be00d4b79f00e5b79f00f6b79f0084
:1018f00087bf9f001fa89700afa897003fa9970038
:10190000cfa99700f00407000000e0000f003500a9
:101910005fb29700efb297007fb397008fbb97003d
:101920001fa89700afa897003fa99700cfa99700dd
:10193000e50407000000e00011003a00bfa2970094
:101940000508a300080032000d0037006000b80051
:101950006011b800d0b79f00e1b79f00f2b79f00b9
:1019600083bf9f00060037006022b8006033b800d4
:10197000d4b79f00e5b79f00f6b79f0087bf9f00d1
:101980005fb29700efb297007fb397008fbb9700cd
:101990000800be000a01be002c0507000002be00c0
:1019a0000203be0094af9f00a5af9f00b6af9f009b
:1019b000c7af9f006022b800060020004702240045
:1019c0005fa89700efa897007fa997008fb19700b5
:1019d000180607000004be000205be000002be009b
:1019e0000203be001fa89700afa897003fa9970069
:1019f000cfa99700b90407000000e00009003500f6
:101a00008d06e80060c6b300efca970080cf520091
:101a100008003a001fb397000603e80096b79f003e
:101a2000110037005fac9700efac97007fad9700d7
:101a30008fb5970050c6b3006fc99700804f510013
:101a400009003a000802be000a03be00d4b79f0096
:101a5000e5b79f00f6b79f0087bf9f008002eb00ad
:101a6000d5af9f00070037000800be000a01be0086
:101a7000d0b79f00e1b79f00f2b79f0083bf9f00e0
:101a8000ddaf9f006fa697000001eb00b2a79f009b
:101a9000c29f9f00e29f9f009d9f9f0068003700ac
:101aa0005fb29700efb297007fb397008fbb9700ac
:101ab0001fa89700afa897003fa99700cfa997004c
:101ac0002d050700850707000004be000205be00c3
:101ad000a6040700e90f5000010034009000200028
:101ae000dfa197000348a3000c003a000000e000cb
:101af0000a003a0071c6b3003f7a9700814f520046
:101b000006003a00dfaa97000500e00003003d0050
:101b10003fa397008606e80021003700cf9b97007f
:101b20000700e0000c003a00dfa897000100e00089
:101b300009003d000c014700e1c2b30001497800f3
:101b40000c06e8000fa997000201e90082af9f0090
:101b500013002000c39f9f000c014700bfa6970001
:101b60000300370001c3b300015978008d06e90076
:101b70000d00e000fbff3a003fa29700040646007c
:101b80008c00470005c3b300854840000c06e80000
:101b90000480ea000fab97000003430086af9f006c
:101ba0005fb29700efb297007fb397008fbb9700ab
:101bb0000800be000a01be009e0507001faa97008c
:101bc000afaa97003fab9700cfab970099040700ef
:101bd0000002be000203be0007f0a20094af9f0007
:101be000a5af9f00b6af9f00c7af9f006022b800af
:101bf00006002000470224005fb09700efb0970076
:101c00007fb197008fb99700db0407000002be0088
:101c10000203be00d4b79f00e5b79f00f6b79f0050
:101c200087bf9f00dfaa97008502e900d5af9f001c
:101c30006f9b97000603e800e69f9f00bda79f00eb
:101c4000ef9b97001fb09700808f530005003d0069
:101c5000afa097004100900065005000800f560033
:101c60008fff39009f9e97004f9997000200e00078
:101c700007003a00dfa197000348a30004003200e8
:101c80000c004700e1c2b300014878000c06e800f0
:101c90000c0047000048eb0051c6b3006fca970024
:101ca000814f520036003a00af9a97008500e90054
:101cb000010147000049eb008001eb000d00e0004e
:101cc00002003d008d06ea001300200022002000e3
:101cd000810378008faa9700000478000b0037007a
:101ce0008103780007034700a400200005000900d5
:101cf0008406d800010278008006780000c3b30093
:101d0000004b42000201e9008502e9008700e9007a
:101d10000d00e000f2ff3a000200e000f0ff3c009e
:101d200085af9f000800780001024700b2c2b300ef
:101d30000300e00001003200d2c2b300024a780082
:101d40000101e90082004700af7997000302fb0020
:101d50001404b10053c6b300f90f520001003e0055
:101d600053c4b300834878000faa97000482e900a7
:101d700084af9f00820f560001003d00e50207007e
:101d8000dfa2970063806200e20f500015003a0066
:101d90000fab97000600e000120034000e00780040
:101da0003ffd0700060037008fab97008700470014
:101db0008080400000014700924878000000e90060
:101dc000efa09700810f5000f7ff3d000100470092
:101dd0000fa99700010320006a0207000001eb0031
:101de000c2a79f000e0078002dfd07005fa297009c
:101df000cfa19700000178008e0078003f989700ef
:101e0000470007004f0778004f06be004f05be0091
:101e10004f04be002f04b100000006001000200097
:101e2000e48f460033fe3d0090b79f0053c6b300d9
:101e3000e3cf9f0053fe37000d00e00036fe350073
:101e400090b79f0046fe37008201780001017800bc
:101e5000f1ff2700bd023700881f780000047800da
:101e600000082000808f5000170035001008200067
:101e7000808f50000b00340030082000808f50000d
:101e800011003a0092007800688050000009780044
:101e90003002be002003be00049cbe000694be00bb
:101ea0000700370092027800648052000009780031
:101eb0001000be008e030700009cbe000294be000e
:101ec00010002000010037000000eb004f047800f4
:101ed00000000600889fbe000004780048009000c3
:101ee00082047800808f540001003600800478005e
:101ef00009017800580090001b020700580090006c
:101f00000900400050049800c800900089845000e7
:101f1000490498000048eb004f04be000000060092
:101f2000f2874700889fbe008a9fbe008c9fbe003c
:101f30008e1f780080047800010578000204780084
:101f4000830578006107620002003a008b0f54009d
:101f500008003900080178008a007800090078003c
:101f6000dcff07008b0f5400020039008805780061
:101f70001e003700088655000c017800f00f56004f
:101f80000100360002012000010220007e8057007f
:101f9000fc0107008c0678000500370002012000d4
:101fa000fe80570009007800caff0700f08656003f
:101fb000ef8f5600f9ff3e004461de0000ff2f0066
:101fc0008091b9000c014100fe80570009007800a3
:101fd000c0ff07000e00e00004003a00080178008e
:101fe0008a00780009007800baff07000b0078002b
:101ff0004f0778004f06be004f05be004f04be00dd
:102000002f01b100000006000000050000000500df
:1020100000000500000178000040eb008080fb001c
:1020200081804000c30b2100818141001342780070
:102030000404e00004003a00d00b210081004000bd
:10204000114078000000060092017800934f520082
:1020500005003a00d00b21008100400011407800bb
:102060000309e800010037000040e800ea4f500093
:10207000eaff360000000600f6874700889fbe0092
:102080008a9fbe008c9fbe008e1f780000057800de
:102090000104780083057800040678000000eb0056
:1020a000c0b79f008080eb00d1b79f00e0b79f00d2
:1020b000f2b79f000008200080bf9f0098007800c2
:1020c000010078008004eb00010037008904e8007b
:1020d000304178000204e0000300320053c2b30034
:1020e000834f5100f9ff3a000900e000040032007c
:1020f000090178000a00780076ff0700188c440078
:102100001807780050c2b3009e4f10003f013a00fc
:102110000e07e8000e0c780010003700cfb09700d3
:102120000100a0000b003700cfb097000110a00005
:1021300008003700cfb097000120a000050037004d
:10214000cfb097000130a00002003700cfb0970059
:102150000140a000c1b79f00000ce8001800780003
:1021600090407800b2c2b30082cf5000f1ff32003d
:1021700007003c0002c2b30082cf5000f0ff3200e3
:1021800032c2b30082cf500007003a00efff3700a1
:10219000d2c2b30082cf5000e0ff320002c3b300ce
:1021a00082cf5000e0ff3200a2c2b30082cf5000c5
:1021b0000d003a00000ce8001c80e900000e7800d9
:1021c00010007800e0b79f000000e0000f003d0025
:1021d000cfb097000100a200c1b79f000000ea0045
:1021e000e0b79f000900370039010700e0b79f0002
:1021f00001003700000ce800180078009000fb0098
:102200000103b100e98f5000faff36004fb097008c
:102210000008a300020032000010a100c0b79f0018
:1022200018007800e1c2b30090cf100016003a0009
:102230008000eb00d1b79f000000e800000c7800a0
:10224000a1c2b30090cf100006003a00000ce800d5
:102250001c80e900000e780010007800d0b79f00c5
:10226000090037001a010700d0b79f0001003700ae
:10227000000ce800180078009000fb000103b1009a
:10228000e98f5000faff36000800780061ff070070
:1022900080467800180078001000fb00a4010700b9
:1022a00091062000810f50003800320012003c00df
:1022b00041062000810f5000340032000a003c002b
:1022c00011062000810f500020003200310620004e
:1022d000810f5000a000320051022000810f5000f9
:1022e000bc003a00b400370071062000810f500096
:1022f000b8003c008800370001072000810f500023
:102300005c00320007003c00e1062000810f500015
:102310007a003200f1062000810f5000ad003a0033
:102320003900370051072000810f5000270032008c
:1023300081072000810f5000420032003107200049
:10234000810f5000a3003a008f0037008d80fb0002
:102350000c01780000fe2f000f004000befe0700b9
:102360000000e000a800320018007800000ce8002f
:102370009041780002fe2f000f014100f8805700c5
:102380000a00780021ff07000e0037008d80fb0057
:102390008c0178001200200000fe2f000f0040008a
:1023a0008f0107000000e00097003200180ce800e1
:1023b00002fe2f000f014100f88057000a0078004c
:1023c00011ff070080844400900037008d80fb00df
:1023d0008c0178000001eb0000fe2f000f00400090
:1023e0007f0107000000e00087003200180ce800c1
:1023f00002fe2f000f014100f88057000a0078000c
:1024000001ff0700efff37008d80fb008c01780093
:102410000001eb0000fe2f000f00400070010700dc
:102420000000e00078003200180ce80002fe2f00e7
:102430000f014100f88057000a007800f2fe070003
:10244000e0ff37008d80fb008c0178000001eb007d
:1024500000fe2f000f004000610107000000e000b7
:102460006900320018007800000ce8009041780004
:102470001c0037008c0178000001eb00010f2000e8
:1024800000fe2f000f004000550107000000e00093
:102490005d003200180ce8000fb097009fb0970065
:1024a0002fb19700bfb19700e00f5000e08f5800a8
:1024b000e00f5900e08f590009003a00cfb59700ae
:1024c0006fb49700400b210075fb07000b027800ea
:1024d0008801780000017800410b21004700370097
:1024e00083c7b30002fe2f000f014100f8805700a0
:1024f0000a007800c5fe0700b2ff37000b814400d8
:102500008d80fb008c01780000fe2f000f00400042
:10251000870107003c0037008d80fb000c0178002c
:1025200000fe2f000f0040004bfe07000000e000ff
:102530003500320018007800000ce8009041780067
:1025400002fe2f000f014100f88057000a007800ba
:102550006cfb07009bff370000c8b30080cf56001c
:1025600029003a00180ce8001c80e900000e7800f1
:1025700010407800e0df9f0013002000e2fd2f00f4
:102580000f0141000800370000c8b30080cf56009b
:102590001d003a00180ce8001c80e900000e7800cd
:1025a0008001eb0010017800f88057000a007800e5
:1025b00097fe070083ff370000c8b30080cf5600a6
:1025c00011003a00180ce8004fb29700efb19700e5
:1025d000080037000e0c78000000eb00c0b79f0029
:1025e000e0b79f000080eb00d0b79f000002eb0037
:1025f0008401780012002000a10b21000a0078005d
:1026000047fe07006fff3700180ce800090078004c
:102610004f0778004f06be004f05be004f04be00b6
:102620006f01b100000006008200fa00889fbe0022
:102630008a1f78000005780082047800c13f9f005f
:102640000004eb00100037000902780088017800d0
:10265000a2f72f000f01410081f72f008f8040006b
:102660000a00780084fe070008004000880f500030
:1026700004003d00b0042000108788000084eb00b7
:1026800004003700000478004f3897001004e00081
:10269000edff3a00080078004f0578004f04be00b7
:1026a0000080fa0000000600800078001000200082
:1026b00002022000828f500004003200e9805000a6
:1026c000e48f5000010036000000eb00000006001f
:1026d000889fbe008a1f7800000578000a047800f1
:1026e000984478000805e8000900fb00eeff0700a9
:1026f0000000e000f9ff3a00b0c2b30080cf540000
:1027000005003200d0c2b3008000eb0080cf54003f
:1027100005003a00020037008000eb00010037009e
:10272000110020000804e8000000eb00030037005f
:10273000ea00b900020050000003b0003801fb00bd
:1027400003fd2f0082814100e98f5100f8ff360020
:102750000100e00001003a000000ea004f057800a7
:102760004f04be0000000600800178000200370020
:10277000b15978000201e9000200e000fcff3a00d4
:1027800000000600889fbe008a9fbe00800478007b
:102790000200e0005b00320001407800814c7800cc
:1027a00082814400f1f99f00e20f5100550036008c
:1027b00091449800a1449800e1f99f00d1f99f004d
:1027c000e60f51004f003600b1449800c1f99f0058
:1027d000e80f51004b0036000905ea00630565006b
:1027e0000a8444000a055100c1ff2f00010565005d
:1027f0000080fb008000eb0012102000131020006e
:1028000086010700008cbe000a01440060b99f00e9
:1028100071b99f00e80f55003a0036002004980077
:1028200031049800400498005104980020b99f009a
:1028300031b99f0040b99f0051b99f00f80f550072
:10284000300036006004980071049800000c980075
:10285000110c9800200c9800310c9800400c980046
:10286000510c980020b19f0031b19f0040b19f00f2
:1028700051b19f0060b19f0071b19f0000b99f00ee
:1028800011b99f0064016400780141000204440012
:10289000020555006011b8000203be000002be0030
:1028a0000403be006022b800000072008180720044
:1028b000020173008381730010003700009cbe008a
:1028c0000294be00400498005104980062049800ed
:1028d00073049800000c9800110c9800220c9800ca
:1028e000330c9800400c9800510c9800620c980032
:1028f000730c98000a02b1000802b000ff0f5500e7
:10290000eeff3e00090078004f05be004f04be00f8
:1029100000000600881f7800000478000800780096
:10292000bb000700080078004f0478000000060094
:10293000f1fb2f0080804000f98f500001003e0025
:102940000050a00000000600f9ff3700f2874700a2
:102950008e1f780002027800030178000000e0007a
:10296000020032000007780001003700728757002c
:102970008002eb000100e000010032008102e9006a
:1029800070805700060009000018eb000080eb0083
:1029900080bf9f002310200093bf9f00aebf9f0009
:1029a000b1bf9f00c5bf9f000100e00003003d00d4
:1029b000b10420001187880006003700004feb00ab
:1029c000eebf9f00debf9f0084007800708057003c
:1029d000af0007004f0778002f01b100000006008c
:1029e00084082000848f50001d0032000d003c0040
:1029f00014082000848f50002700320002003c00a1
:102a0000040820000400370024082000848f5000b0
:102a10003400320044082000848f500043003a0004
:102a200036003700040a2000848f5000270032004f
:102a300004003c0004092000848f50003b003a0051
:102a400028003700020c2000828f50002f00320037
:102a5000020f2000828f500034003a002b00370014
:102a60009380e9000200e00005003200810978004f
:102a70001102fb00cfa2de00612bb9002800370055
:102a800081097800114278000482fb008002eb008b
:102a90006033b8002200370013027800e4005200cf
:102aa0000200e00005003200810978001102be003a
:102ab0004fabde00860378001900370081097800eb
:102ac0001102be006033b800150037009380e900a2
:102ad0008109780011027800cfa2de00612bb900d5
:102ae0000f00370093027800e880520081097800d7
:102af0003102be002103be00090037009380e900c7
:102b00000200e00002003200f1ff37009380e9008c
:102b100081097800110278008002eb006033b80070
:102b20000498be000690be001000050000000500dd
:102b300044082000848f50002500320008003c002b
:102b400014082000848f5000140032002408200054
:102b5000848f500024003200040820000c0037004d
:102b600004092000848f50001f00320004003c0044
:102b700084082000848f500024003a000e003700a3
:102b8000040a2000848f500011003200040c200041
:102b9000848f50001d003a000d0037009380e9003b
:102ba000810978009100780001087800cf91de005b
:102bb0008288be00140037009380e9008109780004
:102bc0009100780001087800824878000e003700f4
:102bd0009380e9008109780091007800010878006d
:102be00082087800080037009380e90081097800a6
:102bf00091007800010878006112b900612bb900da
:102c00008498be008690be001000050000000500fc
:102c10000101780080017800008268000408a300a8
:102c200005003200130037003240780080597800e8
:102c30000004e00014003200030278000208a30040
:102c4000f9ff3a000300780001003700031878000c
:102c500082007800b2017800f5ef2f0083824200f5
:102c60000382ea000482620005082800050262006f
:102c7000f6ff3200000278003141780002587800f7
:102c80000204e000fbff3a000400780000000600a8
:102c90000200fa00881f780000047800e2bf9f005d
:102ca00064815700080078005ffe070098009000dc
:102cb0000148a300010032000080eb004f047800bf
:102cc0000080fa00000006008f1fd1007a02070082
:102cd0008f87e9000000e00000000600809feb0005
:102ce000750207008f87e9000000e0000000060081
:102cf00081037800f8f607000001be006000b8000c
:102d00000478a30013003a006220e10015003e00a1
:102d10000d0039008301d1000281d3008180d300ee
:102d20008301d1000281d3008180d3008301d100cf
:102d30000281d3008180d3000538b000c42add00b1
:102d4000f300b2008381720007f0a70003f0a00037
:102d50000000060083ff2700020020006110b90078
:102d6000f9ff370003ff2700f7ff37001400fa00d0
:102d7000889fbe008a9fbe008c9fbe000004be00dc
:102d80000205be00680047000a90be000890be0021
:102d9000840207000070a7000bf0a1003043200060
:102da0009e02900080825200b0fe2f000028e100b9
:102db00011003d00b0fc2f000028e1001500340098
:102dc0001e0990008e0890007e0090000501b00062
:102dd0000201d1008180d3000080d3008502e80089
:102de000fbff3a000b00e000a9023b00600010006e
:102df000e0801800a6023700f0ff2f00f1ff270047
:102e00000b00e000a2023b000100280000002000af
:102e10009f0237006000b8009d023700020ab90027
:102e2000001bb9000200b80081004200810043008d
:102e3000000006008c9fbe008a9fbe00889fbe00d7
:102e4000ca0107000bf0a200040037008c9fbe00ef
:102e50008a9fbe00889fbe00c40107000c48e100a5
:102e60000b003a000c40e100020032008b01070029
:102e7000400037008b066d003e0032000af0a100d2
:102e8000f3012000f2ff2f006110b9003900370074
:102e90000c40e100370032000940e100010036003b
:102ea0007e0107008a856d00cf5dde000b05750091
:102eb0000006eb008804fd00890454000100320084
:102ec0007d0107000a04e00011003a000800e0005c
:102ed00028003200040040008580480006014900b7
:102ee000878149000358a300180032008301d100f4
:102ef0000281d3008180d3000080d3000c86d300f0
:102f000001003900610676000804e8001800370067
:102f1000040050008580580006015900878159003f
:102f2000060031000af0a2000c06ea00600018005a
:102f3000e080180060011900e081190003003a00e8
:102f40000004eb000005eb000a0037000348a30073
:102f500007003a000c064600000048008180480047
:102f600002014900838149000804e900f7ff3700a6
:102f7000af013700c90137008c9fbe008a9fbe0099
:102f8000889fbe00790107000b056d000940e10034
:102f90000a003a000800e000020032000c40e100a4
:102fa00006003a000af0a1000c047800f3012000aa
:102fb000f2ff2f006110b9009d0037000c40e100c6
:102fc0009b0032000800e000990032000c48e1004c
:102fd00002003a000004eb00030037000900e000a3
:102fe00004003a000c0478006000b8006011b800da
:102ff0008f0037000348a30006003a00000040009d
:103000008180480002014900838149000804e900e9
:10301000f8ff37000748a30006003a000402420008
:1030200085824a0006034b0087834b008904e90030
:10303000f8ff3700fd3f20008d8454000904540040
:103040008a1f7800881f78000004780081047800c7
:1030500002057800830578006000b8006011b800b0
:103060000d042000050037000804440089844c004a
:103070000a054d008b854d00080031000404540002
:1030800085845c0006055d0087855d008381d20034
:103090008d06d300f4ff3b00070037000404440012
:1030a00085844c0006054d0087854d008381d20044
:1030b0008d06d300ecff3b000804440089844c00db
:1030c0000a054d008b854d000800310004045400b2
:1030d00085845c0006055d0087855d000281d20065
:1030e0008d06d300f4ff3b000700370004044400c2
:1030f00085844c0006054d0087854d000281d20075
:103100008d06d300ecff3b000804440089844c008a
:103110000a054d008b854d00080031000404540061
:1031200085845c0006055d0087855d008180d20096
:103130008d06d300f4ff3b00070037000404440071
:1031400085844c0006054d0087854d008180d200a6
:103150008d06d300ecff3b000804440089844c003a
:103160000a054d008b854d00080031000404540011
:1031700085845c0006055d0087855d000080d200c7
:103180008d06d300f4ff3b00070037000404440021
:1031900085844c0006054d0087854d000080d200d7
:1031a0008d06d300ecff3b000b00e00004003d0067
:1031b0000404440085844c0006054d0087854d00bd
:1031c0000006eb008301d1000281d3008180d3008f
:1031d0000080d3000c86d3008301d1000281d3008c
:1031e0008180d3000080d3000c86d3008904740052
:1031f0008b0575008b847400010032006106760037
:103200004f0478004f0578000348a30007003a00f8
:103210000c06460000004800818048000201490079
:10322000838149000804e900f7ff370000013700f7
:103230001a0137008c9fbe008a9fbe00889fbe0087
:10324000ca0007000b056d008a0578000c40e100fc
:1032500008003a000900e00082003a000af0a100ec
:103260000c047800f3012000f2ff2f006110b90078
:103270007c0037000c48e10004003a00870007009a
:103280000900e00077003a00f4ff37000800e00092
:10329000740032000900e00002003a007f000700dd
:1032a00070003700ed3f20008d8454000904440075
:1032b0008a1f7800881f7800871f7800861f780093
:1032c000851f7800841f7800cb19dd00c515de004e
:1032d0008b8571004b11dd00450dde000a05710084
:1032e000cb08dd00c504de00898470004b04dd00de
:1032f0000440b8000546b8008c80400060814e0054
:10330000044eb8008c8040000d0149008001eb00a4
:103310000318ad000456b8000c0141008d8149002e
:103320000002eb000420ad000646b8000c0141008d
:103330008d81490060024a00054eb8000c01410031
:103340008d81490060024a000556b8008c81410019
:103350000d024a008002eb000528ad000746b800c8
:103360008c8141000d024a00e0824a00064eb800fe
:103370008c8141000d024a00e0824a004f0678002d
:103380000c5eb8008c8141000d024a00e0824a00c8
:103390000656b8000c0242008d824a000003eb0082
:1033a0000630ad00074eb8000c0242008d824a0084
:1033b00060034b004f0678000c5eb8000c02420020
:1033c0008d824a0060034b000756b8008c82420091
:1033d0000d034b008003eb000738ad004f0678006b
:1033e0000c5eb8008c8242000d034b00e0834b0062
:1033f0004f0678000c5eb8000c0343008d834b0031
:103400004f0478004f0578000748a3000a003a00ef
:10341000000040008180480002014900838149008a
:1034200004024a0085824a0006034b0087834b0052
:103430000804e900f4ff370003067800808070007c
:1034400082807000010032006106760087017800fa
:103450000601780085007800040078008804780070
:10346000780037008d0037008c06460002003a00d5
:103470000000a6000000060060004800e080480050
:1034800060014900e08149000350a60000000600e9
:103490008301d1000804e800000006000002fd00de
:1034a0008102fd000203fd008303fd008804fd008e
:1034b0008a05fd00000006007048e1001a0039008e
:1034c0007d0320000d48e1000a00390081057000ed
:1034d000830671008c8575008d8575000006eb00f4
:1034e0001cd8e700610676006000b8006011b800e3
:1034f000000006007048e1000b0039008c057800e0
:10350000000678000100780082007800030178004e
:103510008001eb0013d8e70061067600f0845400c8
:10352000f4ff3a00000006006160e1000c48ad00c5
:10353000f08514008b06dd000966de000d067600be
:103540008b0edd000900de000d0070008b16dd0023
:103550008908de008d8070008b1edd000911de0001
:103560000d0171008919de00000006000d00280021
:10357000fc7f20000d856100441cde00ef816100ae
:103580000c046400010032000340a0008d8563003c
:10359000c43cde00ef8363008c84640001003200d1
:1035a0000740a0000c40e10006003a00ef866100f1
:1035b0008286760081867600808676000100320061
:1035c000180037000c48e10007003a00ef8663005e
:1035d0008686760085867600848676000200320034
:1035e000aeff07000f0037000348a30005003a00b4
:1035f00081067000828676008386760001003200a4
:103600000804e8000748a30005003a008506720098
:103610008686760087867600010032008904e800fd
:1036200000000600cf047800cf0578001b003700ab
:10363000000278008102780002037800830378009a
:10364000880478000cf0a70087ff0700fd7f2000aa
:103650000d40e100040035000d0478006000b80062
:103660006011b8000d0037000800e0000b003c00be
:103670000400780085007800060178008701780052
:10368000e18414008cff07000cf0a70076ff070010
:103690000004eb000340a7000804e8004444dd00f8
:1036a0006fc56100880175004f04be004f05be0064
:1036b0004f06be0000000600889fbe008a9fbe0025
:1036c0008c9fbe000404be000605be00809fbe00a5
:1036d000829fbe0021000700040678000800be009b
:1036e0000a01be001d000700840678004f03be00db
:1036f0004f02be008d4f76007fb09700130033005d
:10370000f0ff2f008b8f6b0006003b000d0666005c
:103710000c00a7000a00370007f0a60010002000e8
:103720000a003700880f5200898f5a008a0f5b0009
:103730008b8f5b00030039001000200001003e0069
:103740000000200007f0a7000000ea004f06be00be
:103750004f05be004f04be000000060005ff270015
:1037600005826100070032000428e10001003200f8
:10377000240005000600070001003a00440005008f
:103780000408050002000700f9ff3a0014000500d4
:103790006f826100810270008502710085027200f3
:1037a00000000600800078005002be005003be00fa
:1037b0004439de00f700b200f37f2000030161000e
:1037c000090032000218e10016003a00850172007b
:1037d00083017300838173000008200015003a0004
:1037e0004000200013003700850172008301730040
:1037f0008381730005003a0004a8be0006a8be003d
:10380000100020000b0037000201e9000402420012
:1038100085824a0006034b0087834b000748a300bc
:10382000f9ff32000740a00004a8be0006a8be00b1
:103830002000200080009800920098000000060000
:10384000680447000294be000094be00fc044700d8
:103850008694be008494be0009007800d1ff070062
:1038600008007800cfff070099007800814f7000b2
:103870000b003b000800be000a0007004f00b1002b
:1038800003003700f3ff2700f2ff2f006110b9009b
:103890004f06be004f05be004f04be000080fa0078
:1038a00000000600e48240001078a3000700320008
:1038b000640240001178a3003400be001401be0071
:1038c000040032000330a700000006003500be00ef
:1038d0001501be000330a000000006001800fa0029
:1038e000889fbe008a9fbe008c1f78000004be0027
:1038f0000205be000802be000a03be00443ade0014
:10390000f07f20000006620020432000800f560058
:1039100067003c006022b8006033b8000800be00b9
:10392000e9fc07000000e000610032000802be0070
:103930000a03be00b4b79f00c5b79f00d6b79f006b
:10394000e7b79f00e00f5200e08f5a00e00f5b00e6
:10395000e08f5b000b003d006022b80006002000f5
:10396000073324000800be000a01be0031fd070035
:103970006022b800060020000733240033fd070052
:103980000a0037006022b800060020000733240038
:103990000800be000a01be002cfd07006022b8002e
:1039a000060020000733240022fd07000802be00a5
:1039b0000a03be001ffd07000002be000203be0096
:1039c000f4b79f0085bf9f0096bf9f00a7bf9f00d1
:1039d000e03f2000800f560017003c007fb09700aa
:1039e0008fb897001fb99700afb99700f0af9f004d
:1039f00081b79f0092b79f00a3b79f006044b800b3
:103a00006055b8003fb29700cfb297005fb3970000
:103a1000efb39700e00f5200e08f5a00e00f5b0019
:103a2000e08f5b0022003d006044b8000a002000e7
:103a30000bff2b001e0037006022b8006033b80077
:103a40007fb097008fb897001fb99700afb9970064
:103a5000a2fc07000000e0000c0034007fb29700d9
:103a60008fba97001fbb9700afbb97000800be003e
:103a70000a01be00f5fc07006022b8000600200025
:103a800007ff2300ebfc0700070037007fb2970019
:103a90008fba97001fbb9700afbb97000800be000e
:103aa0000a01be00e9fc07000004be000205be00da
:103ab0000800be000a01be004f0678004f05be0098
:0c3ac0004f04be000080fa000000060069
:020000040000fa
:103acc00415400002b5200005354000000410000f0
:103adc00542b0000435700004d4f0000444500009c
:103aec003d30000000410000542b0000424c00000f
:103afc00454900004e490000543d000032000000d2
:103b0c00415400002b4200004c450000474100008e
:103b1c00545400005353000052560000435200000e
:103b2c0045000000415400002b4200004c450000b1
:103b3c0047410000545400005353000052560000fb
:103b4c005354000041520000540000004154000046
:103b5c002b4200004c450000414400004452000040
:103b6c003f000000415400002b4200004c45000077
:103b7c00414400005644000041540000413d000007
:103b8c0022300000323000003130000036300000ae
:103b9c004130000039340000353700003337000065
:103bac003037000032360000353700003337000064
:103bbc003336000039360000363000003330000058
:103bcc003330000032410000302200000041000080
:103bdc00542b0000424c00004541000044560000ac
:103bec0053540000415200005400000041540000a6
:103bfc002b4200004c45000047410000545400008b
:103c0c0053530000525600003f0000004154000086
:103c1c002b4200004c45000047410000545400006a
:103c2c005343000048410000523f000000380000a0
:103c3c0033000000415400002b4200004c450000b2
:103c4c004741000054540000534e000054460000fd
:103c5c00593d0000302c0000312c0000362c0000a7
:103c6c0032000000c82e0000002e0000802e000044
:103c7c003db10000c82e0000002e0000802e000078
:103c8c0091030000802e0000bcb00000802e0000cc
:103c9c00a3030000c82e0000002e0000802e0000a0
:103cac0000b0000050300000212e000059f500003b
:103cbc0010300000212e00006af50000802e00005c
:103ccc003b03000000000000000000000819000089
:103cdc000100000022000000750000000010000030
:103cec0000100000d1000000b3430000802e000043
:103cfc0000c10000802e000000c10000802e0000da
:103d0c0000c10000802e000000c10000802e0000c9
:103d1c0000c10000802e000000c10000802e0000b9
:103d2c0000c10000802e000000c10000802e0000a9
:103d3c0000c10000802e000000c10000802e000099
:103d4c0000c10000802e000000c10000802e000089
:103d5c0000c10000802e000000c10000802e000079
:103d6c0000c10000802e000000c10000802e000069
:103d7c0000c10000802e000000c10000802e000059
:103d8c0000c10000802e000000c10000802e000049
:103d9c0000c10000802e000000c10000802e000039
:103dac0000c10000802e000000c10000802e000029
:103dbc0000c10000802e000000c10000802e000019
:103dcc0000c10000802e000000c10000802e000009
:103ddc0000c10000802e000000c10000802e0000f9
:103dec0000c10000802e000000c10000802e0000e9
:103dfc0000c10000802e000000c10000802e0000d9
:103e0c0000c10000802e000000c10000802e0000c8
:103e1c0000c10000802e000000c10000802e0000b8
:103e2c0000c10000802e000000c10000802e0000a8
:103e3c0000c10000802e000000c10000e05f000007
:103e4c000000000000000000010000000000000065
:103e5c000000000000000000000000000000000056
:103e6c0092000000000000000000000000000000b4
:103e7c000000000000000000000000000000000036
:103e8c00000000000819000000000000880000007d
:103e9c0000000000000000000000000005e0000031
:103eac00aa38000005e0000090300000fa00000085
:103ebc00960000004b0900001100000011000000ea
:103ecc00020000002d010000d47b00003b0100002b
:103edc00db7a0000040000003f7b0000cd6c00008a
:103eec00c304000085090000c3040000ece60000d8
:103efc000c46000001000000270000001900000023
:103f0c0096000000a0000000010000000c00000062
:103f1c00f03c000000010000010000000300000064
:103f2c00010000000e000000000000003200000044
:103f3c0005000000ee06000004000000c8000000b0
:103f4c000000000004000000a8050000ee060000c0
:103f5c0000040000bc020000b30000008507000054
:103f6c000000000000000000000000000000000045
:103f7c000000000000000000000000000000000035
:103f8c000000000000000000b40000000100000070
:103f9c00b9000000010000009800000000000000c3
:103fac000000000000000000000000000100000004
:103fbc008000000004000000000000000000000071
:103fcc0000000000000000000000000000000000e5
:103fdc0000000000000000000000000000000000d5
:103fec0000000000000000000000000000000000c5
:103ffc0000000000000000000000000000000000b5
:10400c0000000000000000000000000000000000a4
:10401c000000000000000000000000000000000094
:10402c000000000000000000000000000000000084
:10403c000000000000000000000000000000000074
:10404c000000000000000000000000000000000064
:10405c000000000000000000802e000000c10000e5
:10406c00fd2d0000de000000eb000000da00000077
:10407c00000c0000ff0f000000040000c000000056
:10408c005bf50000c90100001ef20000800000007a
:10409c003fff000019f4000058f5000066f5000021
:1040ac0064f50000c0f10000f0000000e00000002a
:1040bc00cd010000d3010000db010000ff7f0000f8
:1040cc00ff010000e400000074f70000f3000000a2
:1040dc00fa000000ff3f0000ca0300006c3800002b
:1040ec0056fe000044fd0000bc020000f906000072
:1040fc0000fc000012020000ae01000058fa0000a3
:10410c009afd000077050000bb020000960100003c
:10411c00950100007f010000820100008901000070
:10412c0087010000880100008a0100008c0100005a
:10413c008f0100008d010000920100009101000030
:10414c00dd0000009f0100007e010000db0000008c
:10415c00b60100007069000026d300009c07000027
:10416c001f0500009d00000000080000bc050000b9
:10417c0037fa0000a2010000aa010000a101000012
:10418c00a8010000a0010000a8050000b401000077
:10419c00b4010000ce000000d0000000fc000000c4
:1041ac00c5010000fffb0000b1000000003800005a
:1041bc0000300000fdf50000fcf50000cd01000012
:1041cc00a00000005fff000000400000ff000000a6
:1041dc00008000006d0f0000eb0000007fff00006e
:1041ec00c2f5000068f70000b3f10000670f000093
:1041fc005b0f0000610f0000800f000058f70000fb
:10420c005bf70000830f000086000000720f0000b7
:10421c00850f0000c6f100007f0f00006cf7000056
:10422c0000e0000000ff0000d1f50000870f000047
:10423c008a0f0000ff030000f03f00008b0000001d
:10424c008e00000090000000b90000002df5000069
:10425c00caf50000cb01000020f2000000000000b5
:10426c000000000000000000000000000000000042
:10427c000000000000000000000000000000000032
:10428c000000000000000000000000000000000022
:10429c000000000000000000000000000000000012
:1042ac000000000000000000000000000000000002
:1042bc0000000000000000000000000000000000f2
:1042cc0000000000000000000000000000000000e2
:1042dc0000000000000000000000000000000000d2
:1042ec0000000000000000000000000000000000c2
:1042fc0000000000000000000000000000000000b2
:10430c0000000000000000000000000000000000a1
:10431c000000000000000000000000000000000091
:10432c000000000000000000000000000000000081
:10433c000000000000000000000000000000000071
:10434c000000000000000000000000000000000061
:10435c000000000000000000000000000000000051
:10436c000000000000000000000000000000000041
:10437c000000000000000000000000000000000031
:10438c000000000000000000000000000000000021
:10439c000000000000000000000000000000000011
:1043ac000000000000000000000000000000000001
:1043bc0000000000000000000000000000000000f1
:1043cc0000000000000000000000000000000000e1
:1043dc0000000000000000000000000000000000d1
:1043ec0000000000000000000000000000000000c1
:1043fc0000000000000000000000000000000000b1
:10440c0000000000000000000000000000000000a0
:10441c000000000030500000982e0000d70e000065
:10442c0050320000982e0000fa030000003000000b
:10443c00f07f0000002e0000002e0000d02e0000a7
:10444c00002e00000180000008a20000fb2f0000dd
:10445c00982e0000ba030000212e00001900000065
:10446c00012e0000ee00000000b20000072f00003b
:10447c00012e00001900000000b20000032f000004
:10448c000150000003520000982e000007cc0000e1
:10449c00012e0000dd00000000b20000272f0000fc
:1044ac00052e00008a00000005520000982e000026
:1044bc00c7c10000032e0000e900000040b200005c
:1044cc00f07f0000082f0000012e000019000000f2
:1044dc0000b20000042f000000300000212e00006c
:1044ec00e9000000982e0000b4b10000012e00007d
:1044fc001800000000b20000102f00000550000052
:10450c00982e00004dc3000005500000982e0000ae
:10451c005ac70000982e0000f9b40000982e000035
:10452c0054b20000982e000067b60000982e0000d0
:10453c0017b2000010300000212e000077000000a0
:10454c00012e0000ef00000000b20000042f00005c
:10455c00982e00007ab7000000300000212e0000d9
:10456c00ef000000012e0000d400000004ae00009b
:10457c000b2f0000012e0000dd00000000b2000037
:10458c00072f000005520000982e00008e0e000030
:10459c0000b20000022f000010300000212e00009d
:1045ac007d000000012e00007d0000000090000046
:1045bc00902e0000f1020000012e0000d700000038
:1045cc0000b20000042f0000982e00002f0e0000f7
:1045dc0000300000212e00007b000000012e0000a6
:1045ec007b00000000b20000122f0000012e000022
:1045fc00d400000000900000022f0000982e000054
:10460c001f0e0000092d0000982e0000810d0000e7
:10461c00012e0000d400000004900000022f0000c6
:10462c0050320000982e0000fa0300000030000009
:10463c00212e00007b000000012e00007c000000f9
:10464c0000b20000902e000009030000012e0000b3
:10465c007c000000013100000108000000b20000e5
:10466c00042f0000982e000047cb000010300000f3
:10467c00212e00007700000081300000012e000088
:10468c007c0000000108000000b20000612f000057
:10469c00032e000089000000012e0000d400000051
:1046ac0098bc000098b8000005b200000f5800003c
:1046bc00232f000007900000095400000030000078
:1046cc00372f00001541000004410000dcbe000043
:1046dc0044be0000dcba00002c01000061000000a8
:1046ec000f5600004a0f00000c2f0000d1420000b2
:1046fc0094b80000c142000011300000052e0000eb
:10470c006af700002cbd00002fb9000080b2000039
:10471c0008220000982e0000c3b70000212d0000d5
:10472c0061300000232e0000d4000000982e000001
:10473c00c3b7000000300000212e00005af5000025
:10474c00182d0000e17f000050300000982e000072
:10475c00fa0300000f520000075000005042000006
:10476c00703000000d540000424200007e820000b8
:10477c00e26f000080b2000042420000052f0000f2
:10478c00212e0000d400000010300000982e0000f4
:10479c00c3b70000032d000060300000212e000084
:1047ac00d4000000012e0000d40000000690000090
:1047bc00182f0000012e0000760000000b540000a2
:1047cc0007520000e07f0000982e00007ac1000024
:1047dc00e16f0000081a000040300000082f0000b4
:1047ec00212e0000d400000020300000982e000084
:1047fc00afb7000050320000982e0000fa03000002
:10480c00052d0000982e0000380e0000003000002e
:10481c00212e0000d400000000300000212e0000ea
:10482c007c000000182d0000012e0000d4000000b8
:10483c0003aa0000012f0000982e0000450e000076
:10484c00012e0000d40000003f80000003a20000f5
:10485c00012f0000002e0000022d0000982e0000f9
:10486c005b0e000030300000982e0000ceb7000028
:10487c0000300000212e00007d00000050320000ae
:10488c00982e0000fa030000012e000077000000b3
:10489c0000b20000242f0000982e0000f5cb000081
:1048ac00032e0000d500000011540000010a000086
:1048bc00bc84000083860000212e0000c90100008a
:1048cc00e040000013520000c44000008240000091
:1048dc00a8b900005242000043be00005342000041
:1048ec00040a000050420000e17f0000f03100009b
:1048fc0041400000f26f000025bd000008080000d8
:10490c00020a0000d07f0000982e0000a8cf000003
:10491c0006bc0000d16f0000e26f0000080a000026
:10492c0080420000982e000058b7000000300000b4
:10493c00212e0000ee000000212e00007700000068
:10494c00212e0000dd000000802e0000f40100008c
:10495c001a24000022000000802e0000ec01000050
:10496c0010500000fb7f0000982e0000f3030000a5
:10497c0057500000fb6f0000013000007154000024
:10498c0011420000420e0000fc2f0000c02e00005f
:10499c0001420000f05f0000802e000000c100000a
:1049ac00fd2d0000010000000000000000000000d0
:1049bc000000000000000000000000009a01000050
:1049cc0034030000000000000000000000000000a4
:1049dc0000000000000000000000000000000000cb
:1049ec0000000000000000000000000000000000bb
:1049fc0000000000000000000000000000000000ab
:104a0c00000000000000000000000000000000009a
:104a1c00000000000000000000000000000000008a
:104a2c00000000000000000000000000000000007a
:104a3c00000000000000000000000000000000006a
:104a4c00000000000000000000000000000000005a
:104a5c00000000000000000000000000000000004a
:104a6c00000000000000000000000000000000003a
:104a7c00000000000000000000000000000000002a
:104a8c00000000000000000000000000000000001a
:104a9c00000000000000000000000000000000000a
:104aac00000000000000000020500000e77f000024
:104abc00f67f0000063200000f2e000061f50000aa
:104acc00fe090000c0b30000042f000017300000e6
:104adc002f2e0000ef0000002d2e000061f50000cd
:104aec00f66f0000e76f0000e05f0000c82e0000ca
:104afc0020500000e77f0000f67f000046300000e9
:104b0c000f2e0000a4f10000be09000080b30000cd
:104b1c00062f00000d2e0000d400000084af000012
:104b2c00022f0000163000002d2e00007b0000002c
:104b3c00863000002d2e000060f50000f66f00009e
:104b4c00e76f0000e05f0000c82e0000012e00009f
:104b5c0077f7000009bc00000fb8000000b200009d
:104b6c0010500000fb7f0000103000000b2f0000e5
:104b7c00032e00008a00000096bc00009fb80000c5
:104b8c0040b20000052f0000032e000068f7000063
:104b9c009ebc00009fb8000040b20000072f000030
:104bac00032e00007e00000041900000012f000049
:104bbc00982e0000dc030000032c000000300000e5
:104bcc00212e00007e000000fb6f0000f05f000053
:104bdc00b82e000020500000e07f0000fb7f00009a
:104bec00002e000027500000982e00003bc800004b
:104bfc0029500000982e0000a7c8000001500000aa
:104c0c00982e000055cc0000e16f00002b500000e6
:104c1c00982e0000e0c90000fb6f0000003000007f
:104c2c00e05f0000212e00007e000000b82e000086
:104c3c007350000001300000575400001142000076
:104c4c00420e0000fc2f0000b82e0000212e0000a8
:104c5c0059f5000010300000c02e0000212e00007d
:104c6c004af1000090500000f77f0000e67f000042
:104c7c00d57f0000c47f0000b37f0000a17f00003f
:104c8c00907f0000827f00007b7f0000982e000048
:104c9c0035b7000000b20000902e000097b0000065
:104cac00032e00008f000000072e00009100000072
:104cbc00052e0000b10000003fba00009fb80000b4
:104ccc00012e0000b1000000a3bd00004c0a000042
:104cdc00052e0000b100000004be0000bfb90000aa
:104cec00cb0a00004fba000022bd0000012e0000cc
:104cfc00b3000000dc0a00002fb90000032e0000f6
:104d0c00b80000000abe00009a0a0000cfb90000eb
:104d1c009bbc0000012e0000970000009fb8000013
:104d2c00930a00000fbc0000910a00000fb80000ad
:104d3c00900a0000252e000018000000052e00002f
:104d4c00c1f500002ebd00002eb90000012e0000a0
:104d5c0019000000313000008a04000000900000af
:104d6c00072f0000012e0000d400000004a2000058
:104d7c00032f0000012e00001800000000b20000fc
:104d8c000c2f00001950000005520000982e000056
:104d9c004db70000052e0000780000008090000048
:104dac0010300000012f0000212e000078000000c0
:104dbc00252e0000dd000000982e00003eb70000fc
:104dcc0000b200000230000001300000042f00008f
:104ddc00012e00001900000000b20000002f00009e
:104dec0021300000012e0000ea000000081a00002b
:104dfc000e2f0000232e0000ea00000033300000cc
:104e0c001b5000000b090000014000001756000069
:104e1c0046be00004b0800004c0a00000142000096
:104e2c000a8000001552000001420000002e000014
:104e3c00012e00001800000000b200001f2f00001f
:104e4c00032e0000c0f50000f03000004808000000
:104e5c0047aa000074300000072e00007a00000002
:104e6c00612200004b1a0000052f0000072e0000e5
:104e7c0066f50000bfbd0000bfb90000c090000087
:104e8c000b2f00001d5600002b300000d2420000fa
:104e9c00db42000001040000c242000004bd00001f
:104eac00fe80000081840000232e00007a000000a8
:104ebc000242000002320000252e000062f50000c4
:104ecc00052e0000d600000081840000252e000075
:104edc00d600000002310000252e000060f5000015
:104eec00052e00008a0000000b5000009008000006
:104efc0080b200000b2f0000052e0000caf5000048
:104f0c00f03e000090080000252e0000caf50000bd
:104f1c00052e000059f50000e03f0000900800004d
:104f2c00252e000059f50000906f0000a16f0000c5
:104f3c00b36f0000c46f0000d56f0000e66f000077
:104f4c00f76f00007b6f0000826f0000705f000045
:104f5c00c82e0000c0500000907f0000e57f0000cc
:104f6c00d47f0000c37f0000b17f0000a27f00004f
:104f7c00877f0000f67f00007b7f0000002e000082
:104f8c00012e000060f50000607f0000982e0000ec
:104f9c0035b7000002300000636f000015520000ae
:104fac00507f0000627f00005a2c0000023200008b
:104fbc001a09000000b30000142f000000b200001a
:104fcc00032f0000092e00001800000000910000c3
:104fdc000c2f0000437f0000982e000097b70000b4
:104fec001f500000028a0000023200000430000052
:104ffc00252e000064f5000015520000506f0000d3
:10500c00436f000044430000252e000060f50000b3
:10501c00d9080000c0b20000362f0000982e000006
:10502c003eb7000000b20000062f0000012e000069
:10503c001900000000b20000022f0000506f0000a9
:10504c00009000000a2f0000012e000079000000e3
:10505c0000900000192f000010300000212e0000dd
:10506c007900000000300000982e0000dc030000e6
:10507c00132d0000012e0000c3f500000cbc000035
:10508c000fb80000123000001004000003b0000044
:10509c00262500002150000003520000982e00002d
:1050ac004db7000010300000212e0000ee00000073
:1050bc0002300000607f0000252e00007900000007
:1050cc00606f000000900000052f00000030000011
:1050dc00212e0000ea00000015500000212e0000d7
:1050ec0064f5000015520000232e000060f500004e
:1050fc0002320000506f000000900000022f0000f0
:10510c0003300000272e000078000000072e00005e
:10511c0060f500001a09000000910000a32f0000a8
:10512c001909000000910000a02f0000906f0000f2
:10513c00a26f0000b16f0000c36f0000d46f0000bd
:10514c00e56f00007b6f0000f66f0000876f0000ba
:10515c00405f0000c82e0000c0500000e77f000038
:10516c00f67f0000263000000f2e000061f50000d5
:10517c002f2e00007c0000000f2e00007c00000091
:10518c00be090000a27f0000807f000080b30000f9
:10519c00d57f0000c47f0000b37f0000917f00002a
:1051ac007b7f00000b2f0000235000001a2500000d
:1051bc0012400000427f0000748200001240000088
:1051cc00527f0000002e000000400000607f0000b5
:1051dc00982e00006ad6000081300000012e0000dd
:1051ec007c0000000108000000b20000422f00000b
:1051fc00032e000089000000012e00008900000031
:10520c0097bc000006bc00009fb800000fb800005f
:10521c0000900000232e0000d80000001030000089
:10522c00013000002a2f0000032e0000d4000000e3
:10523c0044b20000052f000047b20000003000000f
:10524c002d2f0000212e00007c0000002b2d0000d3
:10525c00032e0000fdf500009ebc00009fb800006e
:10526c0040900000142f0000032e0000fcf50000fd
:10527c0099bc00009fb80000409000000e2f000069
:10528c00032e000049f10000255400004a080000dc
:10529c0040900000082f0000982e000035b7000049
:1052ac0000b2000010300000032f0000503000004e
:1052bc00212e0000d4000000102d0000982e0000bc
:1052cc00afb7000000300000212e00007c00000071
:1052dc000a2d0000052e000069f700002dbd00000e
:1052ec002fb9000080b20000012f0000212e000019
:1052fc007d000000232e00007c000000e031000047
:10530c00212e000061f50000f66f0000e76f000031
:10531c00806f0000a26f0000b36f0000c46f00002c
:10532c00d56f00007b6f0000916f0000405f0000a4
:10533c00c82e0000605100000a25000036880000cd
:10534c00f47f0000eb7f00000032000031520000bf
:10535c003230000013300000982e000015cb0000f6
:10536c000a25000033840000d27f00004330000087
:10537c00055000002d520000982e000095c1000031
:10538c00d26f000027520000982e0000d7c70000f3
:10539c002a250000b0860000c07f0000d37f0000eb
:1053ac00af84000029500000f16f0000982e00001f
:1053bc004dc800002a250000ae8a0000aa88000013
:1053cc00f26e00002b500000c16f0000d36f000084
:1053dc00f47f0000982e0000b6c80000e06e0000bc
:1053ec0000b20000322f000033540000838600000e
:1053fc00f16f0000c37f000004300000303000006b
:10540c00f47f0000d07f0000b27f0000e33000008a
:10541c00c56f000056400000454100002808000000
:10542c00031400000eb4000008bc00008240000011
:10543c00100a00002f54000026050000917f000088
:10544c0044280000a37f0000982e0000d9c0000063
:10545c0008b900003330000053090000c16f000090
