:020000040000fa
:080000000002040000000000f2
:020000040000fa
:040008007804000078
:020000040000fa
:04000c007804000074
:020000040000fa
:040010007804000070
:020000040000fa
:04001400780400006c
:020000040000fa
:040018007804000068
:020000040000fa
:04001c007804000064
:020000040000fa
:040020007804000060
:020000040000fa
:04002400780400005c
:020000040000fa
:040028007804000058
:020000040000fa
:04002c00ba03000013
:020000040000fa
:040030007804000050
:020000040000fa
:04003400780400004c
:020000040000fa
:040038007804000048
:020000040000fa
:04003c007804000044
:020000040000fa
:040040007804000040
:020000040000fa
:04004400780400003c
:020000040000fa
:040048007804000038
:020000040000fa
:04004c007804000034
:020000040000fa
:040050007804000030
:020000040000fa
:04005400780400002c
:020000040000fa
:040058007804000028
:020000040000fa
:04005c007804000024
:020000040000fa
:040060007804000020
:020000040000fa
:04006400780400001c
:020000040000fa
:040068007804000018
:020000040000fa
:04006c007804000014
:020000040000fa
:040070007804000010
:020000040000fa
:04007400780400000c
:020000040000fa
:040078007804000008
:020000040000fa
:04007c007804000004
:020000040000fa
:040080007804000000
:020000040000fa
:0400840078040000fc
:020000040000fa
:0400880078040000f8
:020000040000fa
:04008c0078040000f4
:020000040000fa
:0400900078040000f0
:020000040000fa
:0400940078040000ec
:020000040000fa
:0400980078040000e8
:020000040000fa
:04009c0078040000e4
:020000040000fa
:0400a00078040000e0
:020000040000fa
:0400a40078040000dc
:020000040000fa
:0400a80078040000d8
:020000040000fa
:0400ac0078040000d4
:020000040000fa
:0400b00078040000d0
:020000040000fa
:0400b40078040000cc
:020000040000fa
:0400b80078040000c8
:020000040000fa
:0400bc0078040000c4
:020000040000fa
:0400c00078040000c0
:020000040000fa
:0400c40078040000bc
:020000040000fa
:0400c80078040000b8
:020000040000fa
:0400cc0078040000b4
:020000040000fa
:0400d00078040000b0
:020000040000fa
:0400d40078040000ac
:020000040000fa
:0400d80078040000a8
:020000040000fa
:0400dc0078040000a4
:020000040000fa
:0400e00078040000a0
:020000040000fa
:0400e400780400009c
:020000040000fa
:0400e8007804000098
:020000040000fa
:0400ec007804000094
:020000040000fa
:0400f0007804000090
:020000040000fa
:0400f400780400008c
:020000040000fa
:0400f8007804000088
:020000040000fa
:0400fc007804000084
:020000040000fa
:04010000780400007f
:020000040000fa
:04010400780400007b
:020000040000fa
:040108007804000077
:020000040000fa
:04010c007804000073
:020000040000fa
:04011000780400006f
:020000040000fa
:04011400780400006b
:020000040000fa
:040118007804000067
:020000040000fa
:04011c007804000063
:020000040000fa
:04012000780400005f
:020000040000fa
:04012400780400005b
:020000040000fa
:040128007804000057
:020000040000fa
:04012c007804000053
:020000040000fa
:04013000780400004f
:020000040000fa
:04013400780400004b
:020000040000fa
:040138007804000047
:020000040000fa
:04013c007804000043
:020000040000fa
:04014000780400003f
:020000040000fa
:04014400780400003b
:020000040000fa
:040148007804000037
:020000040000fa
:04014c007804000033
:020000040000fa
:04015000780400002f
:020000040000fa
:04015400780400002b
:020000040000fa
:040158007804000027
:020000040000fa
:04015c007804000023
:020000040000fa
:04016000780400001f
:020000040000fa
:04016400780400001b
:020000040000fa
:040168007804000017
:020000040000fa
:04016c007804000013
:020000040000fa
:04017000780400000f
:020000040000fa
:04017400780400000b
:020000040000fa
:040178007804000007
:020000040000fa
:04017c007804000003
:020000040000fa
:0401800078040000ff
:020000040000fa
:0401840078040000fb
:020000040000fa
:0401880078040000f7
:020000040000fa
:04018c0078040000f3
:020000040000fa
:0401900078040000ef
:020000040000fa
:04019400fa0200006b
:020000040000fa
:0401980078040000e7
:020000040000fa
:04019c0078040000e3
:020000040000fa
:0401a0002a0300002e
:020000040000fa
:0401a4005a030000fa
:020000040000fa
:0401a8008a030000c6
:020000040000fa
:0401ac0078040000d3
:020000040000fa
:0401b00078040000cf
:020000040000fa
:0401b40078040000cb
:020000040000fa
:0401b80078040000c7
:020000040000fa
:0401bc0078040000c3
:020000040000fa
:0401c00078040000bf
:020000040000fa
:0401c40078040000bb
:020000040000fa
:0401c80078040000b7
:020000040000fa
:0401cc0078040000b3
:020000040000fa
:0401d00078040000af
:020000040000fa
:0401d40078040000ab
:020000040000fa
:0401d80078040000a7
:020000040000fa
:0401dc0078040000a3
:020000040000fa
:0401e000780400009f
:020000040000fa
:0401e400780400009b
:020000040000fa
:0401e8007804000097
:020000040000fa
:0401ec007804000093
:020000040000fa
:0401f000780400008f
:020000040000fa
:0401f400780400008b
:020000040000fa
:0401f8007804000087
:020000040000fa
:0401fc007804000083
:020000040000fa
:04020000780400007e
:020000040000fa
:04020400780400007a
:020000040000fa
:040208007804000076
:020000040000fa
:04020c007804000072
:020000040000fa
:04021000780400006e
:020000040000fa
:04021400780400006a
:020000040000fa
:040218007804000066
:020000040000fa
:04021c007804000062
:020000040000fa
:04022000780400005e
:020000040000fa
:04022400780400005a
:020000040000fa
:040228007804000056
:020000040000fa
:04022c007804000052
:020000040000fa
:04023000780400004e
:020000040000fa
:04023400780400004a
:020000040000fa
:040238007804000046
:020000040000fa
:04023c007804000042
:020000040000fa
:04024000780400003e
:020000040000fa
:04024400780400003a
:020000040000fa
:040248007804000036
:020000040000fa
:04024c007804000032
:020000040000fa
:04025000780400002e
:020000040000fa
:04025400780400002a
:020000040000fa
:040258007804000026
:020000040000fa
:04025c007804000022
:020000040000fa
:04026000c4030000d3
:020000040000fa
:04026400780400001a
:020000040000fa
:040268007804000016
:020000040000fa
:04026c007804000012
:020000040000fa
:04027000780400000e
:020000040000fa
:04027400780400000a
:020000040000fa
:040278007804000006
:020000040000fa
:04027c007804000002
:020000040000fa
:0402800078040000fe
:020000040000fa
:0402840078040000fa
:020000040000fa
:0402880078040000f6
:020000040000fa
:04028c0078040000f2
:020000040000fa
:0402900078040000ee
:020000040000fa
:0402940078040000ea
:020000040000fa
:0402980078040000e6
:020000040000fa
:04029c0078040000e2
:020000040000fa
:0402a00078040000de
:020000040000fa
:0402a40078040000da
:020000040000fa
:0402a80078040000d6
:020000040000fa
:0402ac0078040000d2
:020000040000fa
:0402b00078040000ce
:020000040000fa
:0402b40078040000ca
:020000040000fa
:0402b80078040000c6
:020000040000fa
:0402bc0078040000c2
:020000040000fa
:0402c00078040000be
:020000040000fa
:0402c40078040000ba
:020000040000fa
:0402c80078040000b6
:020000040000fa
:0402cc0078040000b2
:020000040000fa
:0402d00078040000ae
:020000040000fa
:0402d40078040000aa
:020000040000fa
:0402d80078040000a6
:020000040000fa
:0402dc0078040000a2
:020000040000fa
:0402e000780400009e
:020000040000fa
:0402e400780400009a
:020000040000fa
:0402e8007804000096
:020000040000fa
:0402ec007804000092
:020000040000fa
:0402f000780400008e
:020000040000fa
:0402f400780400008a
:020000040000fa
:0402f8007804000086
:020000040000fa
:0402fc007804000082
:020000040000fa
:04030000780400007d
:020000040000fa
:040304007804000079
:020000040000fa
:040308007804000075
:020000040000fa
:04030c007804000071
:020000040000fa
:04031000780400006d
:020000040000fa
:040314007804000069
:020000040000fa
:040318007804000065
:020000040000fa
:04031c007804000061
:020000040000fa
:04032000780400005d
:020000040000fa
:040324007804000059
:020000040000fa
:040328007804000055
:020000040000fa
:04032c007804000051
:020000040000fa
:100400000f0321000eff26000e01880000000000ef
:10041000000020000000e000020032000001200087
:100420002002880014000700330107000000e000ec
:1004300003003a00009c2000010020000200370069
:100440000000200001002000810f70000100320038
:100450000f000700000020000000e0000200320052
:1004600000000200000000003a0902000000000045
:100470000040da000000fe00200020000000e00044
:1004800002003200100020009001880000000600e9
:10049000a1028800800478000000eb001f003700f4
:1004a000e284440054a0b4009905ba00e2844400f8
:1004b00054a0b4009906ba00e284440054a0b400e9
:1004c0000006eb00476fde00fd07b200ae018800ba
:1004d000636ce10003003a000ad801000000eb0061
:1004e0000e003700606ce10008003a00004deb00a0
:1004f0000a05e800020039003420ec000af0a000f0
:100500008b05e900f9ff3e00040037006168e10057
:10051000010032000086eb000b00070019c7ba008b
:100520001905ba000e04e00003003a000a00e000da
:10053000dbff3a0000000600fe07b200ae028800b2
:100540008a047800f5ff37000cd0a300e20f4d00bd
:100550001c003b0089027800354dba000a05e8000e
:10056000020039003420ec000af0a0008b05e900fd
:100570000f003200254dba000a05e80002003900dc
:100580003420ec000af0a0008b05e90008003200de
:100590000c00e0000600320015cdba000a05e800a4
:1005a000020039003420ec000af0a0008b05e900bd
:1005b0008984e80054a0b4000b00e000e2ff3a0098
:1005c000000006009902ba00055d78008b05e9007d
:1005d000f7ff3200c82ade00055d78008b05e900d0
:1005e000f3ff32000c00e000f1ff320019ddba0029
:1005f000eeff37003600f800809fbe00829fbe00ed
:10060000849fbe00869fbe000000fa0060608000ec
:100610000080880000808000cf80de00b9000700e5
:100620003233230033a52300bb000700608088001d
:10063000718088000b68a9000080fa004f03be009b
:100640004f02be004f01be004f00be003600f90051
:10065000004006003600f800809fbe00829fbe006a
:10066000849fbe00869fbe000000fa00906080005c
:10067000c0808800c0808000cf80de00a10007001d
:100680003233230033a52300a3000700a080880095
:10069000b18088000bc8a9000080fa004f03be009b
:1006a0004f02be004f01be004f00be003600f900f1
:1006b000004006003600f800809fbe00829fbe000a
:1006c000849fbe00869fbe000000fa00a0608000ec
:1006d000d0808800d0808000cf80de0089000700b5
:1006e0003233230033a523008b000700808088006d
:1006f000918088000be8a9000080fa004f03be003b
:100700004f02be004f01be004f00be003600f90090
:10071000004006003600f800809fbe00829fbe00a9
:10072000849fbe00869fbe000000fa00b06080007b
:100730001080880010808000cf80de0071000700ec
:100740003233230033a52300730007004080880064
:10075000518088000c08a9000080fa004f03be00f9
:100760004f02be004f01be004f00be003600f90030
:10077000004006000000fa0008cba8000028a900ed
:100780000080fa00004006003600f800809fbe009e
:10079000829fbe00849fbe00869fbe000a00fa00b2
:1007a000007b800011800a00000000000080fb0038
:1007b000000f7800007b800022800a00000000000b
:1007c0000080fb0010079800007b800055800a0025
:1007d000000000000080fb0020079800007b8000e4
:1007e00066800a00000000000080fb0030079800cf
:1007f000017b800000042000008060000000e00019
:1008000003003200a07b80004007980030003700d2
:10081000007b8000640060000000e00011003a00ee
:10082000017b800000022000008060000000e000ea
:100830000c00320000000000007b800062006000bd
:100840000000e000fcff3200a07b80008000eb0095
:100850002f00070060818800718188005d8fa800eb
:100860001b003700007b8000640060000000e00097
:100870001000320060818000718180000200200041
:10088000031a24001d0007000000e00002003a00e7
:100890004d0207000e003700a07b80008000eb00b7
:1008a0001b00070060818800718188005d8fa800af
:1008b00007003700007b8000620060000000e0005d
:1008c00002003200a07b8000400798005d8fa800e6
:1008d00011c8a9000080fa004f03be004f02be00fd
:1008e0004f01be004f00be003600f9000040060078
:1008f0000040da000000fe000000050014002000a7
:10090000070137004f89de00820178001f013700a0
:100910006011b8002d01370003836800070028002c
:1009200007036300470ade000480a100c71ade0047
:100930000580a100f70f20000720e10042003200ef
:100940000728e10040003200889fbe008a9fbe0059
:100950008c1f7800f107b200f307b2000400e0003a
:10096000640032000170a0000500e0006800320061
:100970000370a00085054200eb07b1000204b80037
:100980000302b8008484440060854a00020ab8006b
:10099000848444000a854a00030ab800040545001f
:1009a000040033000804d0008984d2000a85d200f4
:1009b0008b05e9006158e1003d0035000210200080
:1009c000090161000308200089816100f707200008
:1009d0008783640008867300c84cde00c853dd00be
:1009e000878474004855de000300e00006003200f2
:1009f00082037600040032008904e80060054d009f
:100a00000a88a3000c003a00f70f20000758e10005
:100a100044003d000a70a100c75ddd000a85750035
:100a20008a007300090078004f0678004f05be0069
:100a30004f04be00000006000a05d1008984d300df
:100a40008b05e800f0ff3700881f78000604780067
:100a500090000700070278000001fd008101fd0001
:100a60008c00070087027800850372000778a300d6
:100a7000050032000001fd008101fd009f0007001c
:100a80004f04780000000600850372000748a300a9
:100a900003003200f0ff2f00f1ff2700f8ff3700be
:100aa0000000200001f8270088807000f4ff370064
:100ab000880178004848dd00808171004848de00e8
:100ac000c850dd0001007000c850de000604780048
:100ad0000b0178001600070088807000d2ff3700f5
:100ae0000500e00005003200170020003a00070072
:100af0009dff370081037000f9ff3a0086007800ff
:100b00004f0678004f05be004f04be0000000500f0
:100b100083037100f9ff3200270020002e00070038
:100b200094ff370001f8270086807000f4ff37003b
:100b30000100e00026003200610111007810e100a0
:100b400023003c006022b8007010e1000400350072
:100b500080027800010078008000eb0070015100f5
:100b60000200e0000900340070031100062add00d5
:100b7000822ade008603dd00878272000200de002a
:100b8000860bdd00070070008208de0084817100a2
:100b9000f4ff2700048262008481710004002800b1
:100ba000848262006102600005f0a6000000060079
:100bb00004827100070032000000e800e080480075
:100bc000000006000002be006000b800efff370022
:100bd0006000b80000000600889fbe000004eb0023
:100be0006138e10016003a000100e00008003a0018
:100bf000c800de004800dd00880020000100e000a1
:100c000003003a00c800de004800dd00680444002c
:100c10008184cf00e9845400060034008908dd0097
:100c2000f08314008703de00878070000900dd0078
:100c300009044400610214004f04be0000000600d5
:100c40000300e00008003a00c811de004811dd0092
:100c5000880020000300e00003003a00c811de0015
:100c60004811dd00680444008384cf00e984540007
:100c7000060034008919dd00f08314008713de00bc
:100c8000878171000911dd0009044400e1021400ac
:100c9000e9ff37002700200001f0a700170020001f
:100ca000470bde00f60fb200040032000643e800f6
:100cb0000a0032004702b30000000600010378007a
:100cc000f607b2000603700002003a000703b30003
:100cd000000006008702b300000006000103780050
:100ce000f607b20006037000020032000770a00091
:100cf000000006000760a000000006000478a300c2
:100d0000040032000578a300030032000168a3004c
:100d100001003a000200be000160a00000000600d1
:100d2000889fbe008a9fbe00841f78007c00070059
:100d30004f00780011003300f0ff2f00838f6c000c
:100d400006003b00040565000a00a7000800370004
:100d500009f0a6001000200008003700820f5400a0
:100d6000838f5c00030039001000200001003e006a
:100d70000000200009f0a7000000ea004f05be00b7
:100d80004f04be000000e00000000600881f78004d
:100d9000030478000300e00007003d00600010003d
:100da000e080180060011900e081190002003b009a
:100db00001f02d00030037000400070008f0a70031
:100dc00001f0a0004f04780000000600889fbe00dc
:100dd0008a9fbe00008270000402710004827100cc
:100de000260032000004be000200be006011b80000
:100df0006b092000950220000182cf000a00390013
:100e00000541b1000082cf00070039000541b10063
:100e10000982cf00040039000541b1000882cf00eb
:100e2000010039000541b1000542520012003200b4
:100e30000a003b0082817100610164008100d100e1
:100e40000080d3008984d3000884d3008b05e80098
:100e50000442e800f7ff3a000700370008044400a6
:100e600089844c0000004800818048008b05e9001f
:100e70000442e900f9ff3a00030007004f05be00f5
:100e80004f04be0000000600810020006180550074
:100e90000b003d000b00200061fe2f000100e1006f
:100ea0001d00340082817100610164008904d10059
:100eb0000884d3000000e800faff3a007100200027
:100ec000610064000300700002006000090032004d
:100ed00061044400e0844c000988a500050032004c
:100ee0008b05e8006808e10002003a008904d1009f
:100ef0000884d300f20f20000258e10005003d00f5
:100f0000c75ddd00f907b200898075000800780030
:100f1000000006000bf827008b0078000000050099
:100f20000004be00060007000003be000405be006a
:100f30000200be0002000700844f7500000006009a
:100f4000c70ade00f107b200f50fb2000800320058
:100f5000e1cf4200020032000170a0002400050031
:100f6000810f7000010032000408050044000500f4
:100f7000810f700002003a00140005008502e900ac
:100f80000000400081c04800fcff3b000170a00051
:040f90002400050034
:020000040000fa
:100f94000000fa00000ea800020ea800006ea800cf
:100fa400026ea800008ea800028ea8001c0ea800e5
:100fb4001e0ea80051588000f0ff2300008060003e
:100fc4005058880051588000f00f2c0000806000b9
:100fd40050588800b15e800000f82f000080600047
:100fe400b05e8800d15e800000f82f0000806000b1
:100ff400d05e88002158800000f82f000080600037
:101004002058880041588000f0ff210000806000d3
:101014004058880002eba900100ba900102ba9006e
:10102400d15e80000030200001007000d05e880096
:10103400115880000006200001007000105888003c
:1010440022000700200ba800206ba800208ba8001a
:1010540020aba8000b68a9002b68a8000bc8a90046
:101064002bc8a8000be8a9002be8a8000c08a900cd
:101074002c08a800015c800000fe2f0000806000a6
:101084000000a000005c8800115c8000f00f2e00be
:10109400008060000080a000105c8800215c80005b
:1010a40000fe2f00008060000000a000205c88008b
:1010b400215c8000f00f2e00008060000080a00002
:1010c400205c88000080fa00000006000000fa009e
:1010d4001160800000f020000100700010608800a2
:1010e40001eba800000ca8000000000001608000d3
:1010f40000102000008060000000e000fbff3200d0
:101104000a0ba800002ca800000000000160800069
:1011140000202000008060000000e000fbff32009f
:101124000a2ba80000eca800000000000160800069
:1011340000002800008060000000e000fbff320097
:101144000aeba8000080fa00000006000000fa0084
:101154001ceea9001c4ea9005defa800500420005d
:10116400607b88005d4fa9005e2fa8005e0fa90078
:1011740031c8a80011c8a9005ecfa9005eafa900bc
:10118400682fef0080022000207b88000080fa0096
:10119400000006000200fa00000f78001e0078002c
:1011a400807b88005d8fa80000000000007b800029
:1011b400610060000000e000fcff3a000080fa00db
:1011c400000006000400fa005d8fa9000080800082
:1011d400f0ff0700007b8000ff800a000000000091
:1011e4000080fb00000f7800a07b800010079800af
:1011f400017b800000002800008060000000e00007
:1012040004003a00c0808000e2ff0700a07b800059
:1012140010079800017b8000000028000080600017
:101224000000e00004003a00d0808000d9ff0700ed
:10123400a07b800010079800017b8000000028003c
:10124400008060000000e00004003a00108080008c
:10125400d0ff0700a07b8000100798006000b80052
:1012640060818800718188000080fa000000060017
:101274000000fa00517c8000f0f82f00008060002c
:101284000050a000507c8800517c800080ff2f001b
:10129400008060000000a000507c8800317c800049
:1012a40000fc2f00008060000000a000307c88005b
:1012b400c0032000407c880012002000800720002a
:1012c400a109200053f82000804978008149780062
:1012d400824978001200200060042000710520007b
:1012e40043f82000804978008149780082497800d9
:1012f40000000000217c8000000027008080600046
:1013040000002100808f5000faff3a000000000026
:10131400217c800000022000008060000000e000ca
:10132400fbff32001aff07000200070087ff0700d7
:10133400ffff37000000fa0001e1a8000108800067
:101344000003200001007000000888000021a900ab
:101354000041a90001428000f0f82f0000806000e5
:101364000040a000004288002028a80000102000af
:0c137400400888000080fa00000006001d
:020000040000fa
:10138000001000003000000080000000000000009d
:020000040000fa
:020000040005f5
:047e3000f8ffff0058
:020000040000fa
:020000040005f5
:047e38007fffff00c9
:020000040000fa
:020000040005f5
:047e4000ff7fff00c1
:020000040000fa
:020000040005f5
:047e4800ffffff0039
:020000040000fa
:020000040005f5
:047e5000dfffff0051
:020000040000fa
:020000040005f5
:047e8000fffcff0004
:020000040000fa
:020000040005f5
:047e8800ffffff00f9
:00000001FF
